:03000000020742B2
:0C074200787FE4F6D8FD7581200207895D
:1007CE0088000101010100000000881200000000F5
:1007DE00000000004300290B1621604D002FFF0E74
:1007EE005C0000000A00000000FF0E530000012C08
:1007FE0000000000FF090F0000001400000000FFC1
:10080E000B98000000A000000000FF0C3800000054
:10081E000A00000000FF0D5C000000C80000000090
:0F082E00FF03CD000000C80000000041002200C1
:100D8D00E4FFEFC3940874809480500A74122FF816
:060D9D007410F20F80EC5F
:010DA300222D
:100DE400538E7F5389F0438905E4F58AF58CC28DCF
:030DF400D28C227C
:100DBB00538EBF53890F758B18758DFCC28FD28ED6
:050DCB00D2ABD2AF2203
:10090F0012069190001CEEF0A3EFF090001CE0FE99
:10091F00A3E0FF90001AE06EFAA3E06FFBA3A3E041
:10092F00F4FFEEF45AFEEB5FFF900020EEF0A3EF22
:10093F00F090001CE0FEA3E0FFEE5AFCEF5BFDA37E
:10094F00ECF0A3EDF090001AEEF0A3EFF0ED30E035
:0B095F000A120D8D780B06E65403F61B
:01096A00226A
:1003CD00780BE67072900027E0FAA3E0FB7C007DCD
:1003DD000AFFAE021203057819EDF27C007D0AAF1B
:1003ED0003AE021203057C007D0A1203057818ED99
:1003FD00F2900027E0FAA3E0FB7C007D64FFAE02E3
:10040D001203057C007D0A1203057817EDF27C03BB
:10041D007DE8AF03AE021203057C007D0A120305D1
:10042D007816EDF2900027E0FEA3E0FF7C277D100B
:10043D001203057815EFF2780BE664017045900014
:10044D002EE0FF75F00A847819E5F0F2EF75F00AE9
:10045D008418F2187411F290002DE0FF75F00A84E3
:10046D0018E5F0F2EF75F00A8418F2187411F29095
:10047D00002CE0FF75F00A8418E5F0F2EF75F00A34
:10048D008418F2780BE6640270267809E6FA08E61D
:10049D00FB7C007D0AFFAE021203057819EDF27C9C
:1004AD00007D0AAF03AE02120305EF242E7818F279
:1004BD00780BE66403705090007FE0FAA3E0FB7CBC
:1004CD00007D0AFFAE021203057819EDF27C007D66
:1004DD000AAF03AE021203057C007D0A120305ED7F
:1004ED00242E7818F290007FE0FEA3E0FF7C007DC3
:1004FD00641203057C007D0A120305ED4C7817602C
:08050D0003EDF2227410F2224A
:100B98007F43120BC2AC07E41201D6E4FBFA797F5B
:100BA800784312012FE4FBFA7948784212002612A2
:0A0BB800020A7809A60608A6072223
:0B0E4800780DE675F033A4FF020D7575
:090E53007B017A00792C02096B85
:080E6E00120B36780FA60722D3
:090E5C007BFE7A007900020842D5
:100C380090007EE0FF601E780EE6C3940A748094EC
:100C4800804012E4F6FEFD7BFE7A0079081203A1CB
:060C5800E490007EF02292
:100D5C00120AFBE4FBFA7920784112002612020AEF
:090D6C0090007FEEF0A3EFF022ED
:05001E00780C760722BA
:1005D600E490008BF090008BE0FBC3780C96400310
:0305E6000206907A
:1005E900900023E0FCA3E0FDA3E0FEA3E0FF900060
:1005F9008C12038FEB75F00BA42432F582E43400DE
:10060900F583E0FCA3E0FDA3E0FEA3E0FFEB75F0BA
:100619000BA42436F582E43400F583E0F8A3E0F96D
:10062900A3E0FAA3E02FFFEA3EFEE93DFDE83CFC2A
:1006390090008CE0F8A3E0F9A3E0FAA3E0FBD31261
:10064900037E403A90008CE0FCA3E0FDA3E0FEA30A
:10065900E0FF90008BE0FB75F00BA42436F582E4F3
:100669003400F58312038FEB75F00BA4242FF58268
:0E067900E43400F583A3E0FAA3E0F912039B3A
:0906870090008BE004F00205DB99
:010690002247
:100D090012001E7B017A0079291208AD120DE41236
:0D0D19000DBB120DA4120D8D1205D680FB2E
:03001B00020515C6
:10051500C0E0C0F0C083C082C0D075D000C000C0AC
:0D05250001C002C003C004C005C006C0072D
:1005320090007DE004F0700690007CE004F09000F2
:1005420023E0FCA3E0FDA3E0FEA3E02401FFE43EE0
:10055200FEE43DFDE43CFC90002312038F780E067E
:1005620090007CE0B40321A3E0B4E81CAF8CEFFF61
:10057200AD8AED900027CFF0A3EFF0758A00758C5D
:100582000090007CE4F0A3F0900022E004F0540715
:10059200F0E02412F8E2FED3941474809480400AAE
:1005A200E0FFEE24D2FD7B01800C900022E0FF24CC
:0905B20012F8E2FDE4FB120C84D6
:1005BB00D007D006D005D004D003D002D001D00094
:0B05CB00D0D0D082D083D0F0D0E0323E
:03002300020A428C
:100A4200C0E0C083C082C0D075D000C000C00730F3
:100A52009820780E760090007EE0FF04F074082F54
:100A6200F8E599F2C298E0D3940A74809480400227
:0F0A7200E4F0D007D000D0D0D082D083D0E032D3
:100D2600E4FEEEC3940874809480500FC297EF13CC
:0B0D360092A3EFC313FFD2970E80E7DB
:010D4100228F
:100DD000C29300C29700D29300120D26AF05120DE8
:040DE00026C2932272
:100A8100E4FDC29300C29700D29300120D26E4FF49
:100A9100EFC39408748094805011C297EDC313FD85
:100AA10030A3034480FDD2970F80E5C29300C29723
:0C0AB10000D29700C2A300D2A300AF0542
:010ABD002216
:0B08AD0090008BEBF0A3EAF0A3E9F051
:1008B800E4FD7F8E120DD0E4FCECC39403748094A5
:1008C80080503D90008BE0FBA3E0FAA3E0F98C8216
:1008D8007583001202A4FF75F00A8475F00A84AECD
:1008E800F0EEC454F0FEEF75F00A84E5F04EFBEC30
:1008F80025E0FFC374849FFFAD03120DD00C80B9AF
:070908007D807F8E020DD0FF
:0B096B0090008BEBF0A3EAF0A3E9F092
:10097600C2AFE4FCECC39403748094805031EC2540
:10098600E0FFC374859FFF120A81EFC4540F75F010
:100996000AA4FEEF540F2EFF90008BE0FBA3E0FAB3
:1009A600A3E0F98C82758300EF1202E30C80C5D2B6
:0109B600AF91
:0109B700221D
:040D4200D2A07F0AB2
:100D4600000000000000000000000000000000AEEF
:060D5600071FEE70EB2206
:0F0E0900D2A1120D42C2A17F0A120D46C2A02231
:0C0E1800C2A1120D42D2A17F0A020D46B9
:080ABE00120AC6120B86AF03F9
:020AC600AD077A
:100AC800E4FCECC39408748094805024C2A07F0A8C
:100AD800120D46ED30E704D2A18002C2A17F0A12AE
:100AE8000D46D2A0ED25E0FD7F0A120D460C80D2FE
:020AF800C2A09A
:010AFA0022D9
:100C5E00E4FCECC39408748094805017120D42ED9E
:100C6E0025E0FD30A1034401FDC2A07F0A120D460E
:050C7E000C80DFAF0552
:010C8300224E
:100B6A00EBF0A3EAF0A3E9F0A3EDF0120E097FA0DF
:0C0B7A00120AC6120B86A3E0FF120AC686
:100B8600120D42A2A1E433FDC2A07F0A120D46AFA8
:010B96000559
:010B9700223B
:10000300C2A0EF24FF92A17F0A120D46120D42C235
:08001300A0D2A17F0A020D46F4
:020BC200AB077F
:100BC400120E097F90120ABE120B86120E097F9133
:100BD400120AC6120B86120C5EAD077F01120003C7
:050BE400120E18AF0520
:010BE90022E9
:100D7500AB07120E097F90120AC6120B867F41122D
:080D85000ABE120B86020E18D3
:1009FE00900081120B6A900084E0FF14F0EF601DEE
:100A0E00900081E0FBA3E475F00112035AA9F0FAFD
:100A1E0012028B120B827FC8120D4680D9120E184D
:100A2E007FFF120D467FFF120D467FFF120D467F90
:040A3E00FF020D4660
:1009B800900086120B6A120E097FA1120AC6120B4A
:1009C80086900089E0FF14F0EF6028120C5E90001A
:1009D80086E0FBA3E475F00112035AA9F0FAEF12BE
:1009E80002D1900089E06004E4FF80027F011200D8
:0609F8000380CE020E1880
:10069100E490008DF0A3F090008BF0A3F090008B1C
:1006A100E0FEA3E0FFC39404EE6480948040030263
:1006B1000739EF4E60028001C392C4EF64014E60BE
:1006C10003D38001C392C290008BE07004A3E06465
:1006D100026003D38001C392B5E4FDFCA9057E004D
:1006E1007408A801088006CEA2E713CE13D8F8FF3C
:1006F100ABB0EF5B702690008BA3E025E025E029ED
:10070100FF7E007401A807088005C333CE33CED81D
:10071100F9FF90008DE04EF0A3E04FF00DBD000118
:100721000CED64044C70B590008CE004F070069000
:10073100008BE004F002069E90008DE0FEA3E0FF36
:010741002295
:04083D00410090FFE7
:0C0E2400E5A0541F4480F5A053A01F223D
:100842009000011202A425E0FE12028B4EFE9000DF
:10085200021202A425E025E04EFE9000031202A43B
:1008620033333354F84EFE9000041202A4C454F001
:100872004EFE9000051202A4C43354E04EFE9000D6
:10088200061202A4C4333354C04EFE900007120273
:10089200A4FDC433333354804EFF900090E06F6068
:0A08A20009EFF4F580120E24EFF0C8
:0108AC002229
:060E7E007580FF020E2446
:040CCD007F057E0021
:100CD100EF1FAA0670011E4A600FE4FDEDC3940CDC
:090CE1007480948050EA0D80F348
:010CEA0022E7
:020BEA00A90759
:100BEC00E4FBEBC39408748094805012C294E91314
:100BFC009294120CCDD294E9C313F90B80E47F05C7
:050C0C007E00020CD186
:100CAA00E4FBEBC39408748094805014C294ECC3A0
:100CBA0013FCD2943094034480FC120CCD0B80E2D6
:020CCA00AF0475
:010CCC002205
:100C1100C200D2947F0C7E00120CD1C2947F507E10
:100C210000120CD1D2947F0A7E00120CD1A29492B0
:060C310000120CCDA20030
:010C3700229A
:100AFB00120C117FCC120BEA7F44120BEA7FC87EDB
:100B0B0000120CD1120C117FCC120BEA7FBE120B10
:100B1B00EA120CAAA907120CAAEFAD01FCEC120108
:0B0B2B00D1E4FBFA7980783D0200263F
:100DF700C0F9A4B0999282F880908883C6A1868EA4
:020E0700FFBF2B
:0C0E3000E5A0541F44C0F5A053A01F22F1
:0C0E3C00E5A0541F44E0F5A053A01F22C5
:100C84007580FF120E3CA8077401088002C333D894
:100C9400FCF580120E30ED900DF793F580EB6003B8
:060CA40053807F020E3CAC
:100DA400759850438E01438E0475D7C775D6FE439C
:070DB4008E10D2ACD2AF2279
:080E76008F993099FDC2992209
:080E65000000750821D508FD0D
:010E6D002262
:100CEB00C2AFE4FFEFC3940874809480500DD29090
:0D0CFB00120E65C290120E650F80E9D2AF97
:010D080022C8
:100B3600E4F5D9F5E9F5F9D2DE120CEB3091033084
:100B4600DFFAC2DE20DF18AFF9EFADE9FCEC1201E7
:100B5600D17B967A43798B783C12002602020AC230
:040B6600DF7F00220B
:10002600EC4D6011E8497017ED33EC3304600DE4D4
:10003600FCFFFEFD22E933E8330470F80202761273
:10004600024158046009E4CC248150062850090274
:10005600028028400302027DC0E0EB4A7044B9806A
:1000660006D0E0FB02026CEF4E701CBD8008EBFF71
:10007600EAFEE9FD80EBE98DF0A4FEE5F002010F52
:10008600E9CDF9EAFEEBFFEF89F0A4FCE5F0CE89B5
:10009600F0A42EFFE435F0CD89F0A42DFEE435F072
:1000A6008067EF4E7005BD80D780C3EF8BF0A4ACA0
:1000B600F0EE8BF0A42CFCE435F0F8EF8AF0A42CDB
:1000C600E5F038FCE433CB8DF0A42CFCE5F03BF8EE
:1000D600EE8AF0A42CFCE5F038F8E433CF89F0A4DE
:1000E6002CFCE5F038CF3400CE89F0A42FFFE5F0E4
:1000F6003EFEE433C98DF0A42EFEE5F039CD8AF03C
:10010600A42FFFE5F03EFEE43DFD33D0E0FB5007B3
:100116000BBB000F020280EC2CFCEF33FFEE33FE2C
:06012600ED33FD0202585A
:10012C00020280EC5D046005E8590470030202765B
:10013C00120241580460F6EC4860F2EC7004FDFECB
:10014C00FF22C860DB2481C85009C39860025006A6
:10015C0002027D9850CAF582E9294B4A7005AB82A0
:10016C0002026C75F0007C1A7880C3EF9BEE9AED5E
:10017C0099400DC3EF9BFFEE9AFEED99FDE842F01E
:10018C00DC23ACF0D0E0FFD0E0FED0E0FDAB822071
:10019C00E7101BEB60BAEC2CFCEF33FFEE33FEEDFB
:1001AC0033FD020258E803F830E705C0F075F000A3
:1001BC00EF2FFFEE33FEED33FD40B830E7C280AADF
:1001CC0075F020800E75F010800575F0087D007EAE
:1001DC00007F003392D530D503120370EC334010FE
:1001EC00EF33FFEE33FEED33FDEC33FCD5F0ED22B7
:0E01FC00E5F0247EA2D513CC92E7CDCEFF22F3
:10020A00EDD2E7CD33EC3392D524814006E4FFFEEC
:10021A00FDFC22FCE4CFCECDCC24E0501174FF804B
:10022A00EDC3CC13CCCD13CDCE13CECF13CF0470E8
:07023A00F030D5DE02037075
:10024100E9D2E7C933E833F892D5EDD2E7CD33EC03
:0702510033FC5002B2D5227C
:10025800EC30E7100FBF000C0EBE00080DBD000407
:100268000BEB6014A2D5EB13FCED92E7FD2274FFB3
:10027800FCFDFEFF22E480F8A2D574FF13FC7D800C
:03028800E480EF20
:10074E00020D09E493A3F8E493A34003F68001F2AB
:10075E0008DFF48029E493A3F85407240CC8C333AC
:10076E00C4540F4420C8834004F456800146F6DF7B
:10077E00E4800B01020408102040809007CEE47E36
:10078E00019360BCA3FF543F30E509541FFEE49370
:10079E00A360010ECF54C025E060A840B8E493A337
:1007AE00FAE493A3F8E493A3C8C582C8CAC583CA62
:1007BE00F0A3C8C582C8CAC583CADFE9DEE780BE1A
:0108410000B6
:10028B00BB010689828A83E0225002E722BBFE0271
:09029B00E32289828A83E49322A4
:1002A400BB010CE58229F582E5833AF583E022500F
:1002B40006E92582F8E622BBFE06E92582F8E22259
:0D02C400E58229F582E5833AF583E4932273
:1002D100BB010689828A83F0225002F722BBFE010C
:0202E100F32206
:1002E300F8BB010DE58229F582E5833AF583E8F051
:1002F300225006E92582C8F622BBFE05E92582C8FD
:02030300F222E4
:10030500BC000BBE0029EF8DF084FFADF022E4CCDC
:10031500F875F008EF2FFFEE33FEEC33FCEE9DECA5
:10032500984005FCEE9DFE0FD5F0E9E4CEFD22EDEB
:10033500F8F5F0EE8420D21CFEADF075F008EF2F35
:10034500FFED33FD4007985006D5F0F222C398FD26
:050355000FD5F0EA22C3
:10035A00A3F8E0C5F025F0F0E58215827002158356
:06036A00E0C838F0E822B3
:0E037000C3E49FFFE49EFEE49DFDE49CFC229E
:10037E00EB9FF5F0EA9E42F0E99D42F0E89C45F0D5
:01038E00224C
:0C038F00ECF0A3EDF0A3EEF0A3EFF022E1
:06039B008A838982E473ED
:1003A100EF4E6012EF60010EEDBB010B89828A8373
:1003B100F0A3DFFCDEFA2289F05007F709DFFCA980
:0C03C100F022BBFEFCF309DFFCA9F022D7
:00000001FF
