:03000000020742B2
:0C074200787FE4F6D8FD7581200207895D
:1007CE0088000101010100000000881200000000F5
:1007DE00000000004300290B16216058002FFF0E69
:1007EE00650000000A00000000FF0E5C0000012CF6
:1007FE0000000000FF091A0000001400000000FFB6
:10080E000BA3000000A000000000FF0E510000002E
:10081E00A000000000FF0C410000000A00000000D4
:10082E00FF0D65000000C800000000FF03CD0000B2
:0A083E0000C8000000004100220085
:100D9600E4FFEFC3940874809480500A74122FF80D
:060DA6007410F20F80EC56
:010DAC002224
:100DED00538E7F5389F0438905E4F58AF58CC28DC6
:030DFD00D28C2273
:100DC400538EBF53890F758B18758DFCC28FD28ECD
:050DD400D2ABD2AF22FA
:10091A0012069190001CEEF0A3EFF090001CE0FE8E
:10092A00A3E0FF90001AE06EFAA3E06FFBA3A3E036
:10093A00F4FFEEF45AFEEB5FFF900020EEF0A3EF17
:10094A00F090001CE0FEA3E0FFEE5AFCEF5BFDA373
:10095A00ECF0A3EDF090001AEEF0A3EFF0ED30E02A
:0B096A000A120D96780B06E65403F607
:01097500225F
:1003CD00780BE67072900027E0FAA3E0FB7C007DCD
:1003DD000AFFAE021203057819EDF27C007D0AAF1B
:1003ED0003AE021203057C007D0A1203057818ED99
:1003FD00F2900027E0FAA3E0FB7C007D64FFAE02E3
:10040D001203057C007D0A1203057817EDF27C03BB
:10041D007DE8AF03AE021203057C007D0A120305D1
:10042D007816EDF2900027E0FEA3E0FF7C277D100B
:10043D001203057815EFF2780BE664017045900014
:10044D002EE0FF75F00A847819E5F0F2EF75F00AE9
:10045D008418F2187411F290002DE0FF75F00A84E3
:10046D0018E5F0F2EF75F00A8418F2187411F29095
:10047D00002CE0FF75F00A8418E5F0F2EF75F00A34
:10048D008418F2780BE6640270267809E6FA08E61D
:10049D00FB7C007D0AFFAE021203057819EDF27C9C
:1004AD00007D0AAF03AE02120305EF242E7818F279
:1004BD00780BE66403705090008AE0FAA3E0FB7CB1
:1004CD00007D0AFFAE021203057819EDF27C007D66
:1004DD000AAF03AE021203057C007D0A120305ED7F
:1004ED00242E7818F290008AE0FEA3E0FF7C007DB8
:1004FD00641203057C007D0A120305ED4C7817602C
:08050D0003EDF2227410F2224A
:100BA300120BCBAC07E41201D6E4FBFA797F78434E
:100BB30012012FE4FBFA7948784212002612020A46
:080BC3007809A60608A6072226
:0B0E5100780DE675F033A4FF020D7E63
:090E5C007B017A00792C02097671
:080E7700120B41780FA60722BF
:090E65007BFE7A00790002084DC1
:100C4100900089E0FF601E780EE6C3940A748094D8
:100C5100804012E4F6FEFD7BFE7A0079081203A1C2
:060C6100E4900089F0227E
:100D6500120B06E4FBFA7920784112002612020ADA
:090D750090008AEEF0A3EFF022D9
:05001E00780C760822B9
:1005D600E4900096F0900096E0FBC3780C964003FA
:0305E6000206907A
:1005E900900023E0FCA3E0FDA3E0FEA3E0FF900060
:1005F9009712038FEB75F00BA42432F582E43400D3
:10060900F583E0FCA3E0FDA3E0FEA3E0FFEB75F0BA
:100619000BA42436F582E43400F583E0F8A3E0F96D
:10062900A3E0FAA3E02FFFEA3EFEE93DFDE83CFC2A
:10063900900097E0F8A3E0F9A3E0FAA3E0FBD31256
:10064900037E403A900097E0FCA3E0FDA3E0FEA3FF
:10065900E0FF900096E0FB75F00BA42436F582E4E8
:100669003400F58312038FEB75F00BA4242FF58268
:0E067900E43400F583A3E0FAA3E0F912039B3A
:09068700900096E004F00205DB8E
:010690002247
:100D120012001E7B017A0079291208B8120DED1219
:0D0D22000DC4120DAD120D961205D680FB0A
:03001B00020515C6
:10051500C0E0C0F0C083C082C0D075D000C000C0AC
:0D05250001C002C003C004C005C006C0072D
:10053200900088E004F07006900087E004F09000DC
:1005420023E0FCA3E0FDA3E0FEA3E02401FFE43EE0
:10055200FEE43DFDE43CFC90002312038F780E067E
:10056200900087E0B40321A3E0B4E81CAF8CEFFF56
:10057200AD8AED900027CFF0A3EFF0758A00758C5D
:1005820000900087E4F0A3F0900022E004F054070A
:10059200F0E02412F8E2FED3941474809480400AAE
:1005A200E0FFEE24D2FD7B01800C900022E0FF24CC
:0905B20012F8E2FDE4FB120C8DCD
:1005BB00D007D006D005D004D003D002D001D00094
:0B05CB00D0D0D082D083D0F0D0E0323E
:03002300020A4D81
:100A4D00C0E0C083C082C0D075D000C000C00730E8
:100A5D009820780E7600900089E0FF04F074082F3E
:100A6D00F8E599F2C298E0D3940A7480948040021C
:0F0A7D00E4F0D007D000D0D0D082D083D0E032C8
:100D2F00E4FEEEC3940874809480500FC297EF13C3
:0B0D3F0092A3EFC313FFD2970E80E7D2
:010D4A002286
:100DD900C29300C29700D29300120D2FAF05120DD6
:040DE9002FC2932260
:100A8C00E4FDC29300C29700D29300120D2FE4FF35
:100A9C00EFC39408748094805011C297EDC313FD7A
:100AAC0030A3034480FDD2970F80E5C29300C29718
:0C0ABC0000D29700C2A300D2A300AF0537
:010AC800220B
:0B08B800900096EBF0A3EAF0A3E9F03B
:1008C300E4FD7F8E120DD9E4FCECC3940374809491
:1008D30080503D900096E0FBA3E0FAA3E0F98C8200
:1008E3007583001202A4FF75F00A8475F00A84AEC2
:1008F300F0EEC454F0FEEF75F00A84E5F04EFBEC25
:1009030025E0FFC374849FFFAD03120DD90C80B99A
:070913007D807F8E020DD9EB
:0B097600900096EBF0A3EAF0A3E9F07C
:10098100C2AFE4FCECC39403748094805031EC2535
:10099100E0FFC374859FFF120A8CEFC4540F75F0FA
:1009A1000AA4FEEF540F2EFF900096E0FBA3E0FA9D
:1009B100A3E0F98C82758300EF1202E30C80C5D2AB
:0109C100AF86
:0109C2002212
:040D4B00D2A07F0AA9
:100D4F00000000000000000000000000000000AEE6
:060D5F00071FEE70EB22FD
:0F0E1200D2A1120D4BC2A17F0A120D4FC2A02216
:0C0E2100C2A1120D4BD2A17F0A020D4F9E
:080AC900120AD1120B91AF03D8
:020AD100AD076F
:100AD300E4FCECC39408748094805024C2A07F0A81
:100AE300120D4FED30E704D2A18002C2A17F0A129A
:100AF3000D4FD2A0ED25E0FD7F0A120D4F0C80D2E1
:020B0300C2A08E
:010B050022CD
:100C6700E4FCECC39408748094805017120D4BED8C
:100C770025E0FD30A1034401FDC2A07F0A120D4FFC
:050C87000C80DFAF0549
:010C8C002245
:100B7500EBF0A3EAF0A3E9F0A3EDF0120E127FA0CB
:0C0B8500120AD1120B91A3E0FF120AD15A
:100B9100120D4BA2A1E433FDC2A07F0A120D4FAF8B
:010BA100054E
:010BA2002230
:10000300C2A0EF24FF92A17F0A120D4F120D4BC223
:08001300A0D2A17F0A020D4FEB
:020BCB00AB0776
:100BCD00120E127F90120AC9120B91120E127F9102
:100BDD00120AD1120B91120C67AD077F011200039F
:050BED00120E21AF050E
:010BF20022E0
:100D7E00AB07120E127F90120AD1120B917F411205
:080D8E000AC9120B91020E21AB
:100A090090008C120B7590008FE0FF14F0EF601DC1
:100A190090008CE0FBA3E475F00112035AA9F0FAE7
:100A290012028B120B8D7FC8120D4F80D9120E2125
:100A39007FFF120D4F7FFF120D4F7FFF120D4F7F6A
:040A4900FF020D4F4C
:1009C300900091120B75120E127FA1120AD1120B15
:1009D30091900094E0FF14F0EF6028120C679000F0
:1009E30091E0FBA3E475F00112035AA9F0FAEF12A8
:1009F30002D1900094E06004E4FF80027F011200C2
:060A03000380CE020E216B
:10069100E4900098F0A3F0900096F0A3F0900096FB
:1006A100E0FEA3E0FFC39404EE6480948040030263
:1006B1000739EF4E60028001C392C4EF64014E60BE
:1006C10003D38001C392C2900096E07004A3E0645A
:1006D100026003D38001C392B5E4FDFCA9057E004D
:1006E1007408A801088006CEA2E713CE13D8F8FF3C
:1006F100ABB0EF5B7026900096A3E025E025E029E2
:10070100FF7E007401A807088005C333CE33CED81D
:10071100F9FF900098E04EF0A3E04FF00DBD00010D
:100721000CED64044C70B5900097E004F0700690F5
:100731000096E004F002069E900098E0FEA3E0FF20
:010741002295
:0408480041009BFFD1
:0C0E2D00E5A0541F4480F5A053A01F2234
:10084D009000011202A425E0FE12028B4EFE9000D4
:10085D00021202A425E025E04EFE9000031202A430
:10086D0033333354F84EFE9000041202A4C454F0F6
:10087D004EFE9000051202A4C43354E04EFE9000CB
:10088D00061202A4C4333354C04EFE900007120268
:10089D00A4FDC433333354804EFF90009BE06F6052
:0A08AD0009EFF4F580120E2DEFF0B4
:0108B700221E
:060E87007580FF020E2D34
:040CD6007F057E0018
:100CDA00EF1FAA0670011E4A600FE4FDEDC3940CD3
:090CEA007480948050EA0D80F33F
:010CF30022DE
:020BF300A90750
:100BF500E4FBEBC39408748094805012C294E9130B
:100C05009294120CD6D294E9C313F90B80E47F05B4
:050C15007E00020CDA74
:100CB300E4FBEBC39408748094805014C294ECC397
:100CC30013FCD2943094034480FC120CD60B80E2C4
:020CD300AF046C
:010CD50022FC
:100C1A00C200D2947F0C7E00120CDAC2947F507EFE
:100C2A0000120CDAD2947F0A7E00120CDAA2949295
:060C3A0000120CD6A2001E
:010C40002291
:100B0600120C1A7FCC120BF37F44120BF37FC87EB4
:100B160000120CDA120C1A7FCC120BF37FBE120BEA
:100B2600F3120CB3A907120CB3EFAD01FCEC1201E2
:0B0B3600D1E4FBFA7980783D02002634
:100E0000C0F9A4B0999282F880908883C6A1868E9A
:020E1000FFBF22
:0C0E3900E5A0541F44C0F5A053A01F22E8
:0C0E4500E5A0541F44E0F5A053A01F22BC
:100C8D007580FF120E45A8077401088002C333D882
:100C9D00FCF580120E39ED900E0093F580EB60039C
:060CAD0053807F020E459A
:100DAD00759850438E01438E0475D7C775D6FE4393
:070DBD008E10D2ACD2AF2270
:080E7F008F993099FDC2992200
:080E6E000000750821D508FD04
:010E76002259
:100CF400C2AFE4FFEFC3940874809480500DD29087
:0D0D0400120E6EC290120E6E0F80E9D2AF7B
:010D110022BF
:100B4100E4F5D9F5E9F5F9D2DE120CF43091033070
:100B5100DFFAC2DE20DF18AFF9EFADE9FCEC1201DC
:100B6100D17B967A43798B783C12002602020AC225
:040B7100DF7F002200
:10002600EC4D6011E8497017ED33EC3304600DE4D4
:10003600FCFFFEFD22E933E8330470F80202761273
:10004600024158046009E4CC248150062850090274
:10005600028028400302027DC0E0EB4A7044B9806A
:1000660006D0E0FB02026CEF4E701CBD8008EBFF71
:10007600EAFEE9FD80EBE98DF0A4FEE5F002010F52
:10008600E9CDF9EAFEEBFFEF89F0A4FCE5F0CE89B5
:10009600F0A42EFFE435F0CD89F0A42DFEE435F072
:1000A6008067EF4E7005BD80D780C3EF8BF0A4ACA0
:1000B600F0EE8BF0A42CFCE435F0F8EF8AF0A42CDB
:1000C600E5F038FCE433CB8DF0A42CFCE5F03BF8EE
:1000D600EE8AF0A42CFCE5F038F8E433CF89F0A4DE
:1000E6002CFCE5F038CF3400CE89F0A42FFFE5F0E4
:1000F6003EFEE433C98DF0A42EFEE5F039CD8AF03C
:10010600A42FFFE5F03EFEE43DFD33D0E0FB5007B3
:100116000BBB000F020280EC2CFCEF33FFEE33FE2C
:06012600ED33FD0202585A
:10012C00020280EC5D046005E8590470030202765B
:10013C00120241580460F6EC4860F2EC7004FDFECB
:10014C00FF22C860DB2481C85009C39860025006A6
:10015C0002027D9850CAF582E9294B4A7005AB82A0
:10016C0002026C75F0007C1A7880C3EF9BEE9AED5E
:10017C0099400DC3EF9BFFEE9AFEED99FDE842F01E
:10018C00DC23ACF0D0E0FFD0E0FED0E0FDAB822071
:10019C00E7101BEB60BAEC2CFCEF33FFEE33FEEDFB
:1001AC0033FD020258E803F830E705C0F075F000A3
:1001BC00EF2FFFEE33FEED33FD40B830E7C280AADF
:1001CC0075F020800E75F010800575F0087D007EAE
:1001DC00007F003392D530D503120370EC334010FE
:1001EC00EF33FFEE33FEED33FDEC33FCD5F0ED22B7
:0E01FC00E5F0247EA2D513CC92E7CDCEFF22F3
:10020A00EDD2E7CD33EC3392D524814006E4FFFEEC
:10021A00FDFC22FCE4CFCECDCC24E0501174FF804B
:10022A00EDC3CC13CCCD13CDCE13CECF13CF0470E8
:07023A00F030D5DE02037075
:10024100E9D2E7C933E833F892D5EDD2E7CD33EC03
:0702510033FC5002B2D5227C
:10025800EC30E7100FBF000C0EBE00080DBD000407
:100268000BEB6014A2D5EB13FCED92E7FD2274FFB3
:10027800FCFDFEFF22E480F8A2D574FF13FC7D800C
:03028800E480EF20
:10074E00020D12E493A3F8E493A34003F68001F2A2
:10075E0008DFF48029E493A3F85407240CC8C333AC
:10076E00C4540F4420C8834004F456800146F6DF7B
:10077E00E4800B01020408102040809007CEE47E36
:10078E00019360BCA3FF543F30E509541FFEE49370
:10079E00A360010ECF54C025E060A840B8E493A337
:1007AE00FAE493A3F8E493A3C8C582C8CAC583CA62
:1007BE00F0A3C8C582C8CAC583CADFE9DEE780BE1A
:01084C0000AB
:10028B00BB010689828A83E0225002E722BBFE0271
:09029B00E32289828A83E49322A4
:1002A400BB010CE58229F582E5833AF583E022500F
:1002B40006E92582F8E622BBFE06E92582F8E22259
:0D02C400E58229F582E5833AF583E4932273
:1002D100BB010689828A83F0225002F722BBFE010C
:0202E100F32206
:1002E300F8BB010DE58229F582E5833AF583E8F051
:1002F300225006E92582C8F622BBFE05E92582C8FD
:02030300F222E4
:10030500BC000BBE0029EF8DF084FFADF022E4CCDC
:10031500F875F008EF2FFFEE33FEEC33FCEE9DECA5
:10032500984005FCEE9DFE0FD5F0E9E4CEFD22EDEB
:10033500F8F5F0EE8420D21CFEADF075F008EF2F35
:10034500FFED33FD4007985006D5F0F222C398FD26
:050355000FD5F0EA22C3
:10035A00A3F8E0C5F025F0F0E58215827002158356
:06036A00E0C838F0E822B3
:0E037000C3E49FFFE49EFEE49DFDE49CFC229E
:10037E00EB9FF5F0EA9E42F0E99D42F0E89C45F0D5
:01038E00224C
:0C038F00ECF0A3EDF0A3EEF0A3EFF022E1
:06039B008A838982E473ED
:1003A100EF4E6012EF60010EEDBB010B89828A8373
:1003B100F0A3DFFCDEFA2289F05007F709DFFCA980
:0C03C100F022BBFEFCF309DFFCA9F022D7
:00000001FF
