:03062F000119FFAF
:0C0B9000E5A0541F4480F5A053A01F22D4
:1005C70090000112020425E0FE1201EB4EFE90009E
:1005D7000212020425E025E04EFE900003120204F9
:1005E70033333354F84EFE900004120204C454F01F
:1005F7004EFE900005120204C43354E04EFE9000F4
:1006070006120204C4333354C04EFE900007120290
:1006170004FDC433333354804EFF65196009EFF48A
:07062700F580120B908F1902
:01062E0022A9
:060BE1007580FF020B907D
:100B5F00C0F9A4B0999282F880908883C6A1868E3E
:020B6F00FFBFC6
:0C0B9C00E5A0541F44C0F5A053A01F2288
:0C0BA800E5A0541F44E0F5A053A01F225C
:1009D4007580FF120BA8A8077401088002C333D8DE
:1009E400FCF580120B9CED900B5F93F580EB60039C
:0609F40053807F020BA8F6
:10046000E4F517F518FDFCED4C6003D38001C39251
:10047000C4ED64014C6003D38001C392C2ED6402F9
:100480004C6003D38001C392B5E4FBFAAF037E0056
:100490007408A807088006CEA2E713CE13D8F8FF89
:1004A000A9B0E9F582EF5582701CED25E025E02B1F
:1004B000FF7E007401A807088005C333CE33CED871
:1004C000F94218EE42170BBB00010AEB64044A70B4
:1004D000BB0DBD00010CED64044C708B75B0FFAE1C
:0304E00017AF183B
:0104E30022F6
:060BDA0000007F21DFFE98
:010BE00022F2
:100A6800C2AFE4FEEEC3940874809480500DD29017
:0D0A7800120BDAC290120BDA0E80E9D2AF39
:010A8500224E
:1008F400E4F5D9F5E9F5F9D2DE120A68309103304E
:10090400DFFAC2DE20DF18AFF9EFADE9FCEC12012B
:10091400317B967A43798B783C12002602016AC2B5
:04092400DF7F00224F
:100AC100E4FEEEC3940874809480500FC297EF1334
:0B0AD10092A3EFC313FFD2970E80E743
:010ADC0022F7
:100B3800C29300C29700D29300120AC1AF05120AED
:040B4800C1C2932271
:10080E00E4FDC29300C29700D29300120AC1E4FF26
:10081E00EFC39408748094805011C297EDC313FDFA
:10082E0030A303430580D2970F80E5C29300C29791
:0C083E0000D29700C2A300D2A300AF05B7
:01084A00228B
:060689008B128A13891494
:10068F00E4FD7F8E120B38E4FCECC394037480946A
:10069F00805038AB12AA13A9148C827583001202F2
:1006AF0004FF75F00A8475F00A84AEF0EEC454F0BE
:1006BF00FEEF75F00A84E5F04EFBEC25E0FFC37406
:1006CF00849FFFAD03120B380C80BE7D807F8E029E
:0206DF000B38D6
:06078D008B128A1389148F
:10079300C2AFE4FCECC3940374809480502BEC252B
:1007A300E0FFC374859FFF12080EEFC4540F75F06A
:1007B3000AA4FEEF540F2EFFAB12AA13A9148C82C6
:0B07C3007583001202430C80CBD2AF04
:0107CE002208
:040A86007F057E006A
:100A8A00EF1FAA0670011E4A600FE4FDEDC3940C25
:090A9A007480948050EA0D80F391
:010AA3002230
:02098600A907BF
:10098800E4FBEBC39408748094805012C294E9137A
:100998009294120A86D294E9C313F90B80E47F0576
:0509A8007E00020A8A36
:100A4500E4FBEBC39408748094805014C294ECC307
:100A550013FCD294309403430480120A860B80E27F
:020A6500AF04DC
:010A6700226C
:1009AD00C200D2947F0C7E00120A8AC2947F507EC0
:1009BD0000120A8AD2947F0A7E00120A8AA29492A9
:0609CD0000120A86A200E0
:0109D3002201
:10084B001209AD7FCC1209867F441209867FC87EC0
:10085B0000120A8A1209AD7FCC1209867FBE1209DB
:10086B0086120A45A907120A45EFAD01FCEC1201ED
:0B087B0031E4FBFA7980783D02002692
:040ADD00D2A07F0A1A
:100AE100000000000000000000000000000000AE57
:060AF100071FEE70EB226E
:0F0B8100D2A1120ADDC2A17F0A120AE1C2A0228C
:0C0BB400C2A1120ADDD2A17F0A020AE1F0
:0208BF00AD0783
:1008C100E4FCECC39408748094805024C2A07F0A95
:1008D100120AE1ED30E704D2A18002C2A17F0A121F
:1008E1000AE1D2A0ED25E0FD7F0A120AE10C80D2D7
:0208F100C2A0A3
:0108F30022E2
:1009FA00E4FCECC39408748094805017120ADDED6D
:100A0A0025E0FD30A103430501C2A07F0A120AE1D5
:050A1A000C80DFAF05B8
:010A1F0022B4
:0B0AA4001208BF120AAFAF031208BF18
:100AAF00120ADDA2A1E433FDC2A07F0A120AE1AF50
:010ABF000531
:010AC0002213
:10000300C2A0EF24FF92A17F0A120AE1120ADDC205
:08001300A0D2A17F0A020AE15C
:020A2000AB0722
:100A2200120B817F91120AA4120B817F901208BFD0
:100A3200120AAF1209FAAD077F01120003120BB4BA
:020A4200AF05FE
:010A4400228F
:100B0E00AB07120B817F901208BF120AAF7F411202
:050B1E000AA4020BB463
:1006E1008B088A09890A8D0B120B817FA01208BF22
:1006F100120AAFAF0C1208BF120AAFAF0B150BEF06
:10070100601FAB08050AE50AAA097002050914F978
:100711001201EBFF1208BF120AAF7FC8120AE18073
:10072100DA120BB47FFF120AE17FFF120AE17FFFA9
:08073100120AE17FFF020AE158
:100739008B0D8A0E890F8D10120B817FA01208BFB5
:10074900120AAFAF111208BF120AAF120B817FA1B3
:100759001208BF120AAFAF101510EF60241209FA80
:10076900AB0D050FE50FAA0E7002050E14F9EF1275
:100779000231E5106004E4FF80027F01120003806A
:04078900D5020BB4D6
:030000000203D424
:0C03D400787FE4F6D8FD75817502041BEB
:100632008800010101010000000088121010101052
:100642001010101003300B1621203738FF0BC0009A
:1006520000006400000000FF0B71000000A0000019
:100662000000FF05580000006400000000FF095C64
:100672000000000A00000000FF0BC900000001009A
:0606820000000001290048
:100B4C00538E7F5389F0438905E4F58AF58CC28D69
:030B5C00D28C2216
:100B2300538EBF53890F758B18758DFCC28FD28E70
:050B3300D2ABD2AF229D
:10092800AE6FAF707C007D96120265ED4C7024129C
:10093800084B8F758E748D738C72E4FFFE7D207C5E
:1009480041AB75AA74A973A87212002612016A8EA7
:04095800338F342283
:1007CF00AE6FAF707C007D14120265ED4C702F126E
:1007DF0004608E238F24E5216523FEE5226524FF27
:1007EF00E524F4FDE523F45EF527EF5DF528E52319
:0E07FF005EF525E5245FF5268523218524225D
:01080D0022C8
:10055800AE6FAF707C007D14120265ED4C705FAE1B
:100568002EAF2FFC7D0A1202657819EDF2AE2EAF80
:100578002F7C007D0A1202657C007D0A12026578D4
:1005880018EDF2AE2EAF2F7C007D641202657C0060
:100598007D0A1202657817EDF2AE2EAF2F7C037D2F
:1005A800E81202657C007D0A1202657816EDF2AE4B
:0F05B8002EAF2F7C277D101202657815EFF222EF
:100B71007F41120A20781AA607781CE6FF020B0EA5
:090BC0007B007A00793502078DF3
:080BD2001208F4781EA60722A8
:090BC9007BFE7A0079000205C7E9
:10095C00D3E571940074809480401E781DE6D39486
:10096C000A748094804012E4F6AF71FEFD7BFE7A2F
:0A097C00007908120304E4F571226B
:05001E00781B760522AD
:0B04E400E4F512E512C3781B96506887
:1004EF00852D16852C15852B14852A13E51275F08D
:1004FF000BA4243BF81202D9E51275F00BA4243F8C
:10050F00F81202E5EB2FFFEA3EFEE93DFDE83CFC69
:10051F00AB16AA15A914A813D31202C84026AF16FA
:10052F00AE15AD14AC13E51275F00BA4243FF81201
:10053F0002F2E51275F00BA42438F808E6FA08E683
:04054F00F91202FE9D
:04055300051280907D
:010557002281
:100AF70012001E7B007A007930120689120B4C1205
:070B07000B231204E480FB44
:03001B00020330AD
:10033000C0E0C0F0C083C082C0D075D000C000C093
:0D03400001C002C003C004C005C006C00714
:10034D000570E5707002056FE52D2401F52DE4357E
:10035D002CF52CE4352BF52BE4352AF52A781D06E2
:10036D00E570B4E81BE56FB40316AF8CEFAD8AF5FD
:10037D002EEDF52F758A00758C00756F0075700068
:10038D000529E5295407F5292412F8E2FFD3941421
:10039D00748094804008EF24D2FD7B018009741293
:0C03AD002529F8E2FDE4FBAF291209D479
:1003B900D007D006D005D004D003D002D001D00098
:0B03C900D0D0D082D083D0F0D0E03242
:030023000208864A
:10088600C0E0C0D075D000C000C007309822781DE7
:100896007600AF71057174082FF8E599F2C298D306
:1008A600E571940A74809480400375710075710037
:0908B600D007D000D0D0D0E03210
:10002600EC4D6011E8497017ED33EC3304600DE4D4
:10003600FCFFFEFD22E933E8330470F80201D61214
:1000460001A158046009E4CC248150062850090215
:1000560001E02840030201DDC0E0EB4A7044B980AC
:1000660006D0E0FB0201CCEF4E701CBD8008EBFF12
:10007600EAFEE9FD80EBE98DF0A4FEE5F002010F52
:10008600E9CDF9EAFEEBFFEF89F0A4FCE5F0CE89B5
:10009600F0A42EFFE435F0CD89F0A42DFEE435F072
:1000A6008067EF4E7005BD80D780C3EF8BF0A4ACA0
:1000B600F0EE8BF0A42CFCE435F0F8EF8AF0A42CDB
:1000C600E5F038FCE433CB8DF0A42CFCE5F03BF8EE
:1000D600EE8AF0A42CFCE5F038F8E433CF89F0A4DE
:1000E6002CFCE5F038CF3400CE89F0A42FFFE5F0E4
:1000F6003EFEE433C98DF0A42EFEE5F039CD8AF03C
:10010600A42FFFE5F03EFEE43DFD33D0E0FB5007B3
:100116000BBB000F0201E0EC2CFCEF33FFEE33FECD
:06012600ED33FD0201B8FB
:10012C0075F020800E75F010800575F0087D007E4E
:10013C00007F003392D530D5031202BAEC33401055
:10014C00EF33FFEE33FEED33FDEC33FCD5F0ED2257
:0E015C00E5F0247EA2D513CC92E7CDCEFF2293
:10016A00EDD2E7CD33EC3392D524814006E4FFFE8D
:10017A00FDFC22FCE4CFCECDCC24E0501174FF80EC
:10018A00EDC3CC13CCCD13CDCE13CECF13CF047089
:07019A00F030D5DE0202BACD
:1001A100E9D2E7C933E833F892D5EDD2E7CD33ECA4
:0701B10033FC5002B2D5221D
:1001B800EC30E7100FBF000C0EBE00080DBD0004A8
:1001C8000BEB6014A2D5EB13FCED92E7FD2274FF54
:1001D800FCFDFEFF22E480F8A2D574FF13FC7D80AD
:0301E800E480EFC1
:1003E000020AF7E493A3F8E493A34003F68001F232
:1003F00008DFF48029E493A3F85407240CC8C3331E
:10040000C4540F4420C8834004F456800146F6DFEC
:10041000E4800B010204081020408090062FE47E47
:10042000019360BCA3FF543F30E509541FFEE493E1
:10043000A360010ECF54C025E060A840B8E493A3A8
:10044000FAE493A3F8E493A3C8C582C8CAC583CAD3
:10045000F0A3C8C582C8CAC583CADFE9DEE780BE8B
:010688000071
:1001EB00BB010689828A83E0225002E722BBFE0212
:0901FB00E32289828A83E4932245
:10020400BB010CE58229F582E5833AF583E02250AF
:1002140006E92582F8E622BBFE06E92582F8E222F9
:0D022400E58229F582E5833AF583E4932213
:10023100BB010689828A83F0225002F722BBFE01AC
:02024100F322A6
:10024300F8BB010DE58229F582E5833AF583E8F0F1
:10025300225006E92582C8F622BBFE05E92582C89D
:02026300F22285
:10026500BC000BBE0029EF8DF084FFADF022E4CC7D
:10027500F875F008EF2FFFEE33FEEC33FCEE9DEC46
:10028500984005FCEE9DFE0FD5F0E9E4CEFD22ED8C
:10029500F8F5F0EE8420D21CFEADF075F008EF2FD6
:1002A500FFED33FD4007985006D5F0F222C398FDC7
:0502B5000FD5F0EA2264
:0E02BA00C3E49FFFE49EFEE49DFDE49CFC2255
:1002C800EB9FF5F0EA9E42F0E99D42F0E89C45F08C
:0102D8002203
:0C02D900E6FC08E6FD08E6FE08E6FF2251
:0D02E500E6FB08E6F908E6FA08E6CBF82289
:0C02F200ECF608EDF608EEF608EFF62238
:0602FE008A838982E4738B
:10030400EF4E6012EF60010EEDBB010B89828A8310
:10031400F0A3DFFCDEFA2289F05007F709DFFCA91D
:0C032400F022BBFEFCF309DFFCA9F02274
:00000001FF
