:040E94004100B5FF65
:0C148F00E5A0541F4480F5A053A01F22CC
:100F010090000112054E25E0FE1205354EFE9000BF
:100F11000212054E25E025E04EFE90000312054E1B
:100F210033333354F84EFE90000412054EC454F08E
:100F31004EFE90000512054EC43354E04EFE900063
:100F41000612054EC4333354C04EFE9000071205FD
:100F51004EFDC433333354804EFF9000B5E06F60D3
:0A0F610009EFF4F58012148FEFF091
:010F6B002263
:0614EA007580FF02148F63
:10146E00C0F9A4B0999282F880908883C6A1868E26
:02147E00FFBFAE
:0C149B00E5A0541F44C0F5A053A01F2280
:0C14A700E5A0541F44E0F5A053A01F2254
:1012E1007580FF1214A7A8077401088002C333D8C0
:1012F100FCF58012149BED90146E93F580EB600366
:0613010053807F0214A7D7
:100CBC00E490007DF0A3F090007BF0A3F090007B1B
:100CCC00E0FEA3E0FFC39404EE6480948040030232
:100CDC000D64EF4E60028001C392C4EF64014E605C
:100CEC0003D38001C392C290007BE07004A3E06444
:100CFC00026003D38001C392B5E4FDFCA9057E001C
:100D0C007408A801088006CEA2E713CE13D8F8FF0A
:100D1C00ABB0EF5B702690007BA3E025E025E029CB
:100D2C00FF7E007401A807088005C333CE33CED8EC
:100D3C00F9FF90007DE04EF0A3E04FF00DBD0001F7
:100D4C000CED64044C70B590007CE004F0700690DF
:100D5C00007BE004F0020CC990007DE0FEA3E0FFF4
:010D6C002264
:0814BF000000750D21D50DFDA3
:0114C7002202
:10137600C2AFE4FFEFC3940874809480500DD290FE
:0D1386001214BFC2901214BF0F80E9D2AF45
:011393002237
:1011D900E4F5D9F5E9F5F9D2DE1213763091033049
:1011E900DFFAC2DE20DF18AFF9EFADE9FCEC12013E
:1011F900317B967A43798B783C12002602016AC2C8
:04120900DF7F002261
:1013B200E4FEEEC3940874809480500FC297EF133A
:0B13C20092A3EFC313FFD2970E80E749
:0113CD0022FD
:10144700C29300C29700D293001213B2AF051213D2
:04145700B2C2932268
:10112400E4FDC29300C29700D293001213B2E4FF0D
:10113400EFC39408748094805011C297EDC313FDDB
:1011440030A3034480FDD2970F80E5C29300C29779
:0C11540000D29700C2A300D2A300AF0598
:01116000226C
:0B0F6C0090007BEBF0A3EAF0A3E9F09B
:100F7700E4FD7F8E121447E4FCECC3940374809461
:100F870080503D90007BE0FBA3E0FAA3E0F98C8260
:100F970075830012054EFF75F00A8475F00A84AE5A
:100FA700F0EEC454F0FEEF75F00A84E5F04EFBEC6A
:100FB70025E0FFC374849FFFAD031214470C80B96B
:070FC7007D807F8E021447BC
:0B0FCE0090007BEBF0A3EAF0A3E9F039
:100FD900C2AFE4FCECC39403748094805031EC25D7
:100FE900E0FFC374859FFF121124EFC4540F75F0FD
:100FF9000AA4FEEF540F2EFF90007BE0FBA3E0FA5A
:10100900A3E0F98C82758300EF12058D0C80C5D29F
:01101900AF27
:01101A0022B3
:041394007F057E0053
:10139800EF1FAA0670011E4A600FE4FDEDC3940C0E
:0913A8007480948050EA0D80F37A
:0113B1002219
:02129300A907A9
:10129500E4FBEBC39408748094805012C294E91364
:1012A5009294121394D294E9C313F90B80E47F0549
:0512B5007E0002139809
:10135300E4FBEBC39408748094805014C294ECC3F0
:1013630013FCD2943094034480FC1213940B80E258
:02137300AF04C5
:011375002255
:1012BA00C209D2947F0C7E00121398C2947F507E8A
:1012CA0000121398D2947F0A7E00121398A2949265
:0612DA0009121394A209A1
:0112E00022EB
:10119E001212BA7FCC1212937F441212937FC87E22
:1011AE00001213981212BA7FCC1212937FBE121233
:1011BE0093121353A907121353EFAD01FCEC120156
:0B11CE0031E4FBFA7980783D02002636
:0413E900D2A07F0A05
:1013ED00000000000000000000000000000000AE42
:0613FD00071FEE70EB2259
:0F148000D2A11213E9C2A17F0A1213EDC2A0225A
:0C14B300C2A11213E9D2A17F0A0213EDBE
:08116100121169121259AF03CB
:02116900AD07D0
:10116B00E4FCECC39408748094805024C2A07F0AE2
:10117B001213EDED30E704D2A18002C2A17F0A1257
:10118B0013EDD2A0ED25E0FD7F0A1213ED0C80D2FA
:02119B00C2A0F0
:01119D00222F
:10130700E4FCECC394087480948050171213E9ED41
:1013170025E0FD30A1034401FDC2A07F0A1213EDB1
:051327000C80DFAF05A2
:01132C00229E
:10123D00EBF0A3EAF0A3E9F0A3EDF01214807FA088
:0C124D00121169121259A3E0FF1211697E
:101259001213E9A2A1E433FDC2A07F0A1213EDAF74
:01126900057F
:01126A002261
:10000300C2A0EF24FF92A17F0A1213ED1213E9C2DB
:08001300A0D2A17F0A0213ED47
:02126B00AB07CF
:10126D001214807F911211611212591214807F9005
:10127D00121169121259121307AD077F01120003E3
:05128D001214B3AF05CF
:011292002239
:10140300AB071214807F901211691212597F411297
:0814130011611212590214B319
:101061009000AB12123D9000AEE0FF14F0EF601D56
:101071009000ABE0FBA3E475F001120604A9F0FABD
:101081001205351212557FC81213ED80D91214B30F
:101091007FFF1213ED7FFF1213ED7FFF1213ED7F20
:0410A100FF0213ED4A
:10101B009000B012123D1214807FA11211691212AE
:10102B00599000B3E0FF14F0EF6028121307900003
:10103B00B0E0FBA3E475F001120604A9F0FAEF127D
:10104B00057B9000B3E06004E4FF80027F01120097
:06105B000380CE0214B375
:10141B00759850438E01438E0475D7C775D6FE431E
:07142B008E10D2ACD2AF22FB
:0814DA008F993099FDC299229F
:03000000020E08E5
:0C0E0800787FE4F6D8FD758121020E4FC2
:0314F0002575005F
:100E98008800010101010000000088120000000024
:100EA800000000004300290B16214100737B6042BB
:100EB8000031FF14D10000000A00000000FF14C830
:100EC8000000012C00000000FF0D6D000000140060
:100ED800000000FF13CE000000A000000000FF1378
:100EE8002D0000000A00000000FF14F3000000C8F5
:080EF80000000000410022008F
:10145B00538E7F5389F0438905E4F58AF58CC28D51
:03146B00D28C22FE
:10143200538EBF53890F758B18758DFCC28FD28E58
:05144200D2ABD2AF2285
:1010A500900074E0FEA3E0FF7C007D961205AFED95
:1010B5004C702C12119E900077120639E4FFFE7DCC
:1010C500207C41900077E0F8A3E0F9A3E0FAA3E0E3
:1010D500FB12002612016A90002CEEF0A3EFF0221D
:100D6D00120CBC90001CEEF0A3EFF090001CE0FE06
:100D7D00A3E0FF90001AE06EFAA3E06FFBA3A3E0DF
:100D8D00F4FFEEF45AFEEB5FFF900020EEF0A3EFC0
:100D9D00F090001CE0FEA3E0FFEE5AFCEF5BFDA31C
:100DAD00ECF0A3EDF090001AEEF0A3EFF0ED30E0D3
:100DBD001290001FE030E103D38001C3400578128B
:100DCD00E204F290001EA3E0FF30E10E30E003D309
:100DDD008001C340057813E204F2EF30E1047F0196
:100DED0080027F0090001FE030E0047E0180027ED3
:0A0DFD0000EE5F60057814E204F2D6
:010E070022C8
:0114F30022D6
:1013CE007F4112126BEF75F00AA4780EA6F008F6A4
:0B13DE007811E675F033A4FF02140341
:0914C8007B017A00792E020FCE9F
:0814E2001211D97813A60722AC
:0914D1007BFE7A007900020F0194
:10132D00900076E0FF601E7812E6C3940A748094F4
:10133D00804012E4F6FEFD7BFE7A007908120691DC
:06134D00E4900076F0229E
:05001E007810760622B7
:100C0100E490007BF090007BE0FBC37810964003FA
:030C1100020CBB17
:100C1400900023E0FCA3E0FDA3E0FEA3E0FF90002E
:100C24007C120639EB75F00BA42434F582E434000D
:100C3400F583E0FCA3E0FDA3E0FEA3E0FFEB75F089
:100C44000BA42438F582E43400F583E0F8A3E0F93A
:100C5400A3E0FAA3E02FFFEA3EFEE93DFDE83CFCF9
:100C640090007CE0F8A3E0F9A3E0FAA3E0FBD31240
:100C74000628403A90007CE0FCA3E0FDA3E0FEA33C
:100C8400E0FF90007BE0FB75F00BA42438F582E4D0
:100C94003400F583120639EB75F00BA42431F58288
:0E0CA400E43400F583A3E0FAA3E0F912068B16
:090CB20090007BE004F0020C0646
:010CBB002216
:10120D0012001E7B017A007929120F6C12145B12E9
:10121D00143212141B7BFF7A1479F0900073E0FFE7
:10122D0090007EE4F0A3EFF0120728120C0180FB72
:03001B00020B4095
:100B4000C0E0C0F0C083C082C0D075D000C000C07B
:0D0B500001C002C003C004C005C006C007FC
:100B5D00900075E004F07006900074E004F09000D1
:100B6D0023E0FCA3E0FDA3E0FEA3E02401FFE43EAF
:100B7D00FEE43DFDE43CFC9000231206397812069C
:100B8D00900074E0B40321A3E0B4E81CAF8CEFFF38
:100B9D00AD8AED900027CFF0A3EFF0758A00758C2C
:100BAD0000900074E4F0A3F0900022E004F05407EC
:100BBD00F0E02412F8E2FED3941474809480400A7D
:100BCD00E0FFEE24D2FD7B01800C900022E0FF249B
:090BDD0012F8E2FDE4FB1212E142
:100BE600D007D006D005D004D003D002D001D00063
:0B0BF600D0D0D082D083D0F0D0E0320D
:030023000210E5E3
:1010E500C0E0C083C082C0D075D000C000C007304A
:1010F500982078127600900076E0FF04F074082FAF
:10110500F8E599F2C298E0D3940A7480948040027D
:0F111500E4F0D007D000D0D0D082D083D0E03229
:10002600EC4D6011E8497017ED33EC3304600DE4D4
:10003600FCFFFEFD22E933E8330470F80201D61214
:1000460001A158046009E4CC248150062850090215
:1000560001E02840030201DDC0E0EB4A7044B980AC
:1000660006D0E0FB0201CCEF4E701CBD8008EBFF12
:10007600EAFEE9FD80EBE98DF0A4FEE5F002010F52
:10008600E9CDF9EAFEEBFFEF89F0A4FCE5F0CE89B5
:10009600F0A42EFFE435F0CD89F0A42DFEE435F072
:1000A6008067EF4E7005BD80D780C3EF8BF0A4ACA0
:1000B600F0EE8BF0A42CFCE435F0F8EF8AF0A42CDB
:1000C600E5F038FCE433CB8DF0A42CFCE5F03BF8EE
:1000D600EE8AF0A42CFCE5F038F8E433CF89F0A4DE
:1000E6002CFCE5F038CF3400CE89F0A42FFFE5F0E4
:1000F6003EFEE433C98DF0A42EFEE5F039CD8AF03C
:10010600A42FFFE5F03EFEE43DFD33D0E0FB5007B3
:100116000BBB000F0201E0EC2CFCEF33FFEE33FECD
:06012600ED33FD0201B8FB
:10012C0075F020800E75F010800575F0087D007E4E
:10013C00007F003392D530D50312061AEC334010F1
:10014C00EF33FFEE33FEED33FDEC33FCD5F0ED2257
:0E015C00E5F0247EA2D513CC92E7CDCEFF2293
:10016A00EDD2E7CD33EC3392D524814006E4FFFE8D
:10017A00FDFC22FCE4CFCECDCC24E0501174FF80EC
:10018A00EDC3CC13CCCD13CDCE13CECF13CF047089
:07019A00F030D5DE02061A69
:1006BD00E508247EF582E43400F583E005082290F8
:1006CD00007B30070390007EE475F00112064502B1
:1006DD0005352000E97F2ED2008018EF540F2490AD
:1006ED00D43440D4FF30040BEF24BFB41A005003B0
:1006FD002461FFE50960021509050CE50C70020582
:10070D000B30070E90007BE475F001120645EF02E9
:10071D00057B0214DA7403D2078003E4C207F508DF
:10072D0090007B12065CE4F509F50BF50CE509600C
:10073D00077F2012070080F5750AFFC201C200C2B3
:10074D0002C203C205C206C2081206CCFF700D30EC
:10075D0007057F00120711AF0CAE0B22B4255FC247
:10076D00D5C2041206CCFF24D0B40A00501A75F07D
:10077D000A780930D50508B6FF0106C6A426F6206D
:10078D00D5047002D20380D924CFB41A00EF5004DF
:10079D00C2E5D204020A03D20180C6D20080C0D2C3
:1007AD000280BCD2D580BAD20580B47F201207005A
:1007BD002002077401B5090040F11206BDFF1207B2
:1007CD000002073AD208D20680951206BDFB12062A
:1007DD00BDFA1206BDF94A4B700679017A0B7BFF03
:1007ED0020022EE509602A7E008E82758300120597
:1007FD004E60060EEE650A70F0C2D5EBC0E0EAC0A1
:10080D00E0E9C0E0EE120A64D0E0F9D0E0FAD0E001
:10081D00FB120535FF60AAEBC0E0EAC0E0E9C0E0DD
:10082D00120700D0E02401F9D0E03400FAD0E0FB4B
:10083D00E50A0460DCD50AD98087D20280A2120AAB
:10084D004660F7E50A7001041201EBA90A600DE597
:10085D000A600914F50A120AEEEF60F3EA30E702B6
:10086D00F404C3995079EAF4250A0430E701E4044D
:10087D00F50A800D120A4660C1EA050A250A120121
:10088D00EBEA9000AAF030E701E4250A04D50A044A
:10089D0020050114120A64E4C0E0120AEE9000AAC9
:1008AD00E0601320E70714F01206E8802204F0D070
:1008BD00E014C0E07F001206E8E50A60071206DFCB
:1008CD00150A800B3005031206DFD0E002073AD07F
:1008DD00E00480C4120A46609EE50A041201EB9002
:1008ED0000AAEAF0E50A2005026001042404120AB8
:0108FD006496
:1008FE0074FF04C0E0120AEE1206E8E50A200502B3
:10090E0060031206DFD0E0B50AE87F451206F290CA
:10091E0000AAE07F2B30E7047F2DF404C0E012071D
:10092E0000D0E075F00A84C0F01206E9D0E012069D
:10093E00E902073A791080027908C206C2088008D7
:10094E00D2D5790A8004790AC2D5E50A047002F577
:10095E000AE4FAFDFEFF1206BDFC7B08200113120D
:10096E0006BDFD7B1030000A1206BDFE1206BDFF4D
:10097E007B20EC3382D592D55013C3E43000069F12
:10098E00FFE49EFEE42001039DFDE49CFCE4CBF815
:10099E00C201EC700CCFCECDCCE824F8F870F38009
:1009AE0017C3EF33FFEE33FEED33FDEC33FCEB33C9
:1009BE00FB994002FB0FD8E9EB300105F8D0E0C4FB
:1009CE0048B201C0E00AEC4D4E4F78207B0070C259
:1009DE00EAB50A0040BCC0E0120A66D0F0D0E020B2
:1009EE000104C4C0E0C4B201C0F01206E9D0F0D5D3
:1009FE00F0EB02073A12066507D75309425807A8CB
:100A0E004C07A44209464F094E44094E4907BD43BF
:100A1E0009545508814608E145084B470B215007FC
:100A2E00AC2D07B02E07D32B07B42307D1200B0A0A
:100A3E002A076C48000007CBE50AB4FF03750A06C7
:100A4E001206BDFC1206BDFD1206BDFE1206BDFF4E
:100A5E009000A3020228790AA2D5200314300509BA
:100A6E00B910020404B9080104A2D52006025001EF
:100A7E00042002689202B509005034C0E07F203095
:100A8E0003197F30A20272067205500F120ABDC200
:100A9E0002C206C205C2087F30800F300503E9C0CE
:100AAE00E0120700300503D0E0F9D0E0B509CC30F4
:100ABE0005177F30B9100C1207007F583004077FDE
:100ACE00788003B908031207003002057F2D020754
:100ADE00007F202008F87F2B2006F322920280CF81
:100AEE007F00B40700500B24A3F582E43400F58395
:100AFE00E0FF22286E756C6C2900D2011206BD3003
:100B0E0001F8C201780930D50108F602076C2D50A4
:100B1E004349581206BD2403B405004001E4900B6E
:100B2E001C931206F1743A1206F1D20375090402EF
:020B3E0009426A
:1001A100E9D2E7C933E833F892D5EDD2E7CD33ECA4
:0701B10033FC5002B2D5221D
:1001B800EC30E7100FBF000C0EBE00080DBD0004A8
:1001C8000BEB6014A2D5EB13FCED92E7FD2274FF54
:1001D800FCFDFEFF22E480F8A2D574FF13FC7D80AD
:0301E800E480EFC1
:1001EB00F920E73624F950037907E4F42402FBE500
:1001FB0082158270021583DBF6E024FB501BE9604D
:10020B0014E4F0E582158270021583E004F0B40A61
:0D021B0008E4F0D9EE7401F00A22C2D522E9
:10022800ED33EC3392D5FA602AB4FF33EDC2E77BA5
:10023800FF60067A02794DE4227A02795620D504C5
:100248007A027951224E614E002B494E46002D49C3
:100258004E4600E47A08F0A3DAFC7B00740722C05B
:1002680083C082ECC0E0EDC0E0EEC0E0EFC0E0EAA1
:1002780075F010A4CAABF075F04DA42BFBE435F073
:10028800FCEA2410FAEB34C5FBEC34D9FCEDC2E7E8
:10029800FF75F056A4F42411C5F0F434C58FF0A40A
:1002A8002AE5F03BE43CF020E7141204F5D0E0FF27
:1002B800D0E0FED0E0FDD0E0FC1204288014F40465
:1002C8001204F5D0E0FFD0E0FED0E0FDD0E0FC1253
:1002D8000026D082D083E0FAEDD2E7CD33EC332488
:1002E80082FBE4C3CF33CFCE33CECD33CD33DBF374
:1002F8007B0775F00A846004F0A31B0AE5F0F0A3FD
:100308008FF0740AA4FFACF08EF0740AA42CFEAC33
:10031800F050010C8DF0740AA42CFDE435F0F0A324
:05032800DBDE7407227A
:10032D000201D6E86480F8E933E83360110460F027
:10033D00ED33EC337009E8FCE9FDEAFEEBFF220436
:10034D0060DED3EB9FEA9EE99DE8C2E78CF0C2F731
:10035D0095F0400CE8CCF8E9CDF9EACEFAEBCFFBFD
:10036D001201A185D0F05804700320D5B3E80470B4
:10037D00075002B2D50201E092D5EC0460F7E4CC4F
:10038D00C0E0C398F8603B94186008400DD0E0FBC6
:10039D000201B8E4FBFAC9FC8028E830E406E4C9A0
:1003AD00FBE4CAFCE830E305E4C9CACBFCE854071A
:1003BD006010F8C3E913F9EA13FAEB13FBEC13FC25
:1003CD00D8F130F52FC3E49CFCEF9BFFEE9AFEEDC8
:1003DD0099FDD0E0FBEF4E4D4C701222DB03020174
:1003ED00DDEC2CFCEF33FFEE33FEED33FDED30E7AE
:1003FD00EB0201B8EF2BFFEE3AFEED39FDD0E0FB3D
:10040D0050130BBB00030201E0ED13FDEE13FEEFE5
:08041D0013FFEC13FC0201B80F
:100425000201E0EC5D046005E8590470030201D6A1
:100435001201A1580460F6EC4860F2EC7004FDFE70
:10044500FF22C860DB2481C85009C39860025006AA
:100455000201DD9850CAF582E9294B4A7005AB8245
:100465000201CC75F0007C1A7880C3EF9BEE9AED03
:1004750099400DC3EF9BFFEE9AFEED99FDE842F022
:10048500DC23ACF0D0E0FFD0E0FED0E0FDAB822075
:10049500E7101BEB60BAEC2CFCEF33FFEE33FEEDFF
:1004A50033FD0201B8E803F830E705C0F075F00048
:1004B500EF2FFFEE33FEED33FD40B830E7C280AAE3
:1004C5003F8000004120000042C80000447A00003F
:1004D500461C400047C35000497424004B189680C1
:1004E5004CBEBC205A0E1BCA6753C21C749DC5AEB8
:1004F500FB60065407601C2323120523EB54386068
:100505000912050F12051E120026ECF8EDF9EEFA98
:10051500EFCB22EB12051E80F1543803241C900406
:10052500C5FE93FC0EEE93FD0EEE930ECE93FF22C9
:100E140002120DE493A3F8E493A34003F68001F2D5
:100E240008DFF48029E493A3F85407240CC8C333DF
:100E3400C4540F4420C8834004F456800146F6DFAE
:100E4400E4800B0102040810204080900E94E47E9C
:100E5400019360BCA3FF543F30E509541FFEE493A3
:100E6400A360010ECF54C025E060A840B8E493A36A
:100E7400FAE493A3F8E493A3C8C582C8CAC583CA95
:100E8400F0A3C8C582C8CAC583CADFE9DEE780BE4D
:010F000000F0
:10053500BB010689828A83E0225002E722BBFE02C4
:09054500E32289828A83E49322F7
:10054E00BB010CE58229F582E5833AF583E0225062
:10055E0006E92582F8E622BBFE06E92582F8E222AC
:0D056E00E58229F582E5833AF583E49322C6
:10057B00BB010689828A83F0225002F722BBFE015F
:02058B00F32259
:10058D00F8BB010DE58229F582E5833AF583E8F0A4
:10059D00225006E92582C8F622BBFE05E92582C850
:0205AD00F22238
:1005AF00BC000BBE0029EF8DF084FFADF022E4CC30
:1005BF00F875F008EF2FFFEE33FEEC33FCEE9DECF9
:1005CF00984005FCEE9DFE0FD5F0E9E4CEFD22ED3F
:1005DF00F8F5F0EE8420D21CFEADF075F008EF2F89
:1005EF00FFED33FD4007985006D5F0F222C398FD7A
:0505FF000FD5F0EA2217
:10060400A3F8E0C5F025F0F0E582158270021583A9
:06061400E0C838F0E82206
:0E061A00C3E49FFFE49EFEE49DFDE49CFC22F1
:10062800EB9FF5F0EA9E42F0E99D42F0E89C45F028
:01063800229F
:0C063900ECF0A3EDF0A3EEF0A3EFF02234
:10064500F8E0FBA3A3E0F925F0F0E582158270023E
:070655001583E0FA38F022E2
:09065C00EBF0A3EAF0A3E9F0229F
:10066500D083D082F8E4937012740193700DA3A324
:1006750093F8740193F5828883E473740293686038
:06068500EFA3A3A380DF38
:06068B008A838982E473FA
:10069100EF4E6012EF60010EEDBB010B89828A8380
:1006A100F0A3DFFCDEFA2289F05007F709DFFCA98D
:0C06B100F022BBFEFCF309DFFCA9F022E4
:00000001FF
