:04071A00410082FF19
:0C0C4100E5A0541F4480F5A053A01F2222
:1005E90090000112020425E0FE1201EB4EFE90007C
:1005F9000212020425E025E04EFE900003120204D7
:1006090033333354F84EFE900004120204C454F0FC
:100619004EFE900005120204C43354E04EFE9000D1
:1006290006120204C4333354C04EFE90000712026E
:1006390004FDC433333354804EFF900082E06F6071
:0A06490009EFF4F580120C41EFF008
:010653002284
:060C9C007580FF020C410F
:100C2000C0F9A4B0999282F880908883C6A1868E7C
:020C3000FFBF04
:0C0C4D00E5A0541F44C0F5A053A01F22D6
:0C0C5900E5A0541F44E0F5A053A01F22AA
:100A8A007580FF120C59A8077401088002C333D875
:100A9A00FCF580120C4DED900C2093F580EB600371
:060AAA0053807F020C598D
:1004A900E4900080F0A3F090007EF0A3F090007E2D
:1004B900E0FEA3E0FFC39404EE648094804003024D
:1004C9000551EF4E60028001C392C4EF64014E6092
:1004D90003D38001C392C290007EE07004A3E0645C
:1004E900026003D38001C392B5E4FDFCA9057E0037
:1004F9007408A801088006CEA2E713CE13D8F8FF26
:10050900ABB0EF5B702690007EA3E025E025E029E3
:10051900FF7E007401A807088005C333CE33CED807
:10052900F9FF900080E04EF0A3E04FF00DBD00010F
:100539000CED64044C70B590007FE004F0700690F7
:10054900007EE004F00204B675B0FF900080E0FE82
:03055900A3E0FF1D
:01055C00227C
:080C71000000750821D508FD03
:010C79002258
:100AF900C2AFE4FFEFC3940874809480500DD29084
:0D0B0900120C71C290120C710F80E9D2AF76
:010B160022BC
:10098300E4F5D9F5E9F5F9D2DE120AF9309103302D
:10099300DFFAC2DE20DF18AFF9EFADE9FCEC12019C
:1009A300317B967A43798B783C12002602016AC226
:0409B300DF7F0022C0
:100B3500E4FEEEC3940874809480500FC297EF13BF
:0B0B450092A3EFC313FFD2970E80E7CE
:010B50002282
:100BF900C29300C29700D29300120B35AF05120BB6
:040C090035C293223B
:1008CE00E4FDC29300C29700D29300120B35E4FFF1
:1008DE00EFC39408748094805011C297EDC313FD3A
:1008EE0030A3034480FDD2970F80E5C29300C297D8
:0C08FE0000D29700C2A300D2A300AF05F7
:01090A0022CA
:0B06B800900079EBF0A3EAF0A3E9F05A
:1006C300E4FD7F8E120BF9E4FCECC3940374809475
:1006D30080503D900079E0FBA3E0FAA3E0F98C821F
:1006E300758300120204FF75F00A8475F00A84AE64
:1006F300F0EEC454F0FEEF75F00A84E5F04EFBEC27
:1007030025E0FFC374849FFFAD03120BF90C80B97E
:070713007D807F8E020BF9CF
:0B077800900079EBF0A3EAF0A3E9F099
:10078300C2AFE4FCECC39403748094805031EC2535
:10079300E0FFC374859FFF1208CEEFC4540F75F0BA
:1007A3000AA4FEEF540F2EFF900079E0FBA3E0FABA
:1007B300A3E0F98C82758300EF1202430C80C5D24B
:0107C300AF86
:0107C4002212
:040B17007F057E00D8
:100B1B00EF1FAA0670011E4A600FE4FDEDC3940C93
:090B2B007480948050EA0D80F3FF
:010B3400229E
:020A3C00A90708
:100A3E00E4FBEBC39408748094805012C294E913C3
:100A4E009294120B17D294E9C313F90B80E47F052D
:050A5E007E00020B1BED
:100AD600E4FBEBC39408748094805014C294ECC376
:100AE60013FCD2943094034480FC120B170B80E263
:020AF600AF044B
:010AF80022DB
:100A6300C200D2947F0C7E00120B1BC2947F507E77
:100A730000120B1BD2947F0A7E00120B1BA29492CE
:060A830000120B17A20097
:010A8900224A
:10094800120A637FCC120A3C7F44120A3C7FC87E9D
:1009580000120B1B120A637FCC120A3C7FBE120ADC
:100968003C120AD6A907120AD6EFAD01FCEC120117
:0B09780031E4FBFA7980783D02002694
:040B6C00D2A07F0A8A
:100B7000000000000000000000000000000000AEC7
:060B8000071FEE70EB22DE
:0F0C3200D2A1120B6CC2A17F0A120B70C2A022BA
:0C0C6500C2A1120B6CD2A17F0A020B701E
:08090B00120913120A02AF03E6
:02091300AD072E
:10091500E4FCECC39408748094805024C2A07F0A40
:10092500120B70ED30E704D2A18002C2A17F0A123A
:100935000B70D2A0ED25E0FD7F0A120B700C80D262
:02094500C2A04E
:01094700228D
:100AB000E4FCECC39408748094805017120B6CED26
:100AC00025E0FD30A1034401FDC2A07F0A120B7096
:050AD0000C80DFAF0502
:010AD50022FE
:1009E600EBF0A3EAF0A3E9F0A3EDF0120C327FA03E
:0C09F600120913120A02A3E0FF120913F9
:100A0200120B6CA2A1E433FDC2A07F0A120B70AFDD
:010A120005DE
:010A130022C0
:10000300C2A0EF24FF92A17F0A120B70120B6CC2E5
:08001300A0D2A17F0A020B70CC
:020A1400AB072E
:100A1600120C327F9112090B120A02120C327F90CD
:100A2600120913120A02120AB0AD077F011200035F
:050A3600120C65AF0584
:010A3B002298
:100BA000AB07120C327F90120913120A027F411216
:080BB000090B120A02020C6598
:10080B0090006F1209E6900072E0FF14F0EF601D8C
:10081B0090006FE0FBA3E475F0011202BAA9F0FAA5
:10082B001201EB1209FE7FC8120B7080D9120C65F6
:10083B007FFF120B707FFF120B707FFF120B707F0D
:04084B00FF020B702D
:1007C5009000741209E6120C327FA1120913120A65
:1007D50002900077E0FF14F0EF6028120AB0900055
:1007E50074E0FBA3E475F0011202BAA9F0FAEF1266
:1007F5000231900077E06004E4FF80027F0112007F
:060805000380CE020C6529
:100BB800759850438E01438E0475D7C775D6FE438A
:070BC8008E10D2ACD2AF2267
:080C8C008F993099FDC29922F5
:0300000002055D99
:0C055D00787FE4F6D8FD7581200205A42B
:10071E0088000101010100000000881200000000A5
:10072E00000000004300290B162160370031FF0C3A
:10073E00830000000100000000FF0C7A0000012C75
:10074E0000000000FF0B51000000A000000000FFA1
:10075E0009B70000000A00000000FF0BE4000000D3
:09076E00C8000000004100220057
:100C0D00538E7F5389F0438905E4F58AF58CC28DA7
:030C1D00D28C2254
:100BCF00538EBF53890F758B18758DFCC28FD28EC4
:050BDF00D2ABD2AF22F1
:10084F00900068E0FEA3E0FF7C007D96120265ED4C
:10085F004C702C12094890006B1202EFE4FFFE7DE2
:10086F00207C4190006BE0F8A3E0F9A3E0FAA3E04D
:10087F00FB12002612016A90002CEEF0A3EFF0227B
:10065400900068E0FEA3E0FF7C007D14120265EDCB
:100664004C70501204A990001CEEF0A3EFF090001F
:100674001CE0FEA3E0FF90001AE0FCA3E0FDEC6E9A
:10068400FAED6FFBA3A3E0F4FFEEF45AFEEB5FFF79
:10069400900020EEF0A3EFF090001CE0FCA3E0FD3E
:1006A400EC5AFFED5BA3CFF0A3EFF090001AECF04F
:0306B400A3EDF0C3
:0106B7002220
:100BE4007808E2FF75F00A847819E5F0F2EF75F001
:050BF4000A8418F22242
:100B51007F41120A14EF75F00AA47809A6F008F68D
:0B0B6100780CE675F033A4FF020BA037
:090C7A007B017A00792E02077853
:080C9400120983780EA6072265
:090C83007BFE7A0079000205E90C
:1009B70090006AE0FF6027780DE6C3940A7480947C
:1009C700804012E4F6FEFD7BFE7A007908120301EF
:0F09D700E490006AF090006AE064017001F02281
:05001E00780B760522BD
:1003EE00E4900079F0900079E0FBC3780B9640031F
:0303FE000204A84E
:10040100900023E0FCA3E0FDA3E0FEA3E0FF900049
:100411007A1202EFEB75F00BA42434F582E4340078
:10042100F583E0FCA3E0FDA3E0FEA3E0FFEB75F0A4
:100431000BA42438F582E43400F583E0F8A3E0F955
:10044100A3E0FAA3E02FFFEA3EFEE93DFDE83CFC14
:1004510090007AE0F8A3E0F9A3E0FAA3E0FBD3125D
:1004610002DE403A90007AE0FCA3E0FDA3E0FEA3A7
:10047100E0FF900079E0FB75F00BA42438F582E4ED
:100481003400F5831202EFEB75F00BA42431F582F1
:0E049100E43400F583A3E0FAA3E0F91202FBC5
:09049F00900079E004F00203F37F
:0104A8002231
:100B860012001E7B017A0079291206B8120C0D128A
:0A0B96000BCF120BB81203EE80FB28
:03001B0002032DB0
:10032D00C0E0C0F0C083C082C0D075D000C000C096
:0D033D0001C002C003C004C005C006C00717
:10034A00900069E004F07006900068E004F0900004
:10035A0023E0FCA3E0FDA3E0FEA3E02401FFE43ECA
:10036A00FEE43DFDE43CFC9000231202EF780D060A
:10037A00900068E0B40321A3E0B4E81CAF8CEFFF5F
:10038A00AD8AED900027CFF0A3EFF0758A00758C47
:10039A0000900068E4F0A3F0900022E004F0540713
:1003AA00F0E02412F8E2FED3941474809480400A98
:1003BA00E0FFEE24D2FD7B01800C900022E0FF24B6
:0903CA0012F8E2FDE4FB120A8ABC
:1003D300D007D006D005D004D003D002D001D0007E
:0B03E300D0D0D082D083D0F0D0E03228
:0300230002088F41
:10088F00C0E0C083C082C0D075D000C000C00730A8
:10089F009820780D760090006AE0FF04F074082F1E
:1008AF00F8E599F2C298E0D3940A748094804002DC
:0F08BF00E4F0D007D000D0D0D082D083D0E03288
:10002600EC4D6011E8497017ED33EC3304600DE4D4
:10003600FCFFFEFD22E933E8330470F80201D61214
:1000460001A158046009E4CC248150062850090215
:1000560001E02840030201DDC0E0EB4A7044B980AC
:1000660006D0E0FB0201CCEF4E701CBD8008EBFF12
:10007600EAFEE9FD80EBE98DF0A4FEE5F002010F52
:10008600E9CDF9EAFEEBFFEF89F0A4FCE5F0CE89B5
:10009600F0A42EFFE435F0CD89F0A42DFEE435F072
:1000A6008067EF4E7005BD80D780C3EF8BF0A4ACA0
:1000B600F0EE8BF0A42CFCE435F0F8EF8AF0A42CDB
:1000C600E5F038FCE433CB8DF0A42CFCE5F03BF8EE
:1000D600EE8AF0A42CFCE5F038F8E433CF89F0A4DE
:1000E6002CFCE5F038CF3400CE89F0A42FFFE5F0E4
:1000F6003EFEE433C98DF0A42EFEE5F039CD8AF03C
:10010600A42FFFE5F03EFEE43DFD33D0E0FB5007B3
:100116000BBB000F0201E0EC2CFCEF33FFEE33FECD
:06012600ED33FD0201B8FB
:10012C0075F020800E75F010800575F0087D007E4E
:10013C00007F003392D530D5031202D0EC3340103F
:10014C00EF33FFEE33FEED33FDEC33FCD5F0ED2257
:0E015C00E5F0247EA2D513CC92E7CDCEFF2293
:10016A00EDD2E7CD33EC3392D524814006E4FFFE8D
:10017A00FDFC22FCE4CFCECDCC24E0501174FF80EC
:10018A00EDC3CC13CCCD13CDCE13CECF13CF047089
:07019A00F030D5DE0202D0B7
:1001A100E9D2E7C933E833F892D5EDD2E7CD33ECA4
:0701B10033FC5002B2D5221D
:1001B800EC30E7100FBF000C0EBE00080DBD0004A8
:1001C8000BEB6014A2D5EB13FCED92E7FD2274FF54
:1001D800FCFDFEFF22E480F8A2D574FF13FC7D80AD
:0301E800E480EFC1
:10056900020B86E493A3F8E493A34003F68001F217
:1005790008DFF48029E493A3F85407240CC8C33393
:10058900C4540F4420C8834004F456800146F6DF62
:10059900E4800B010204081020408090071AE47ED1
:1005A900019360BCA3FF543F30E509541FFEE49357
:1005B900A360010ECF54C025E060A840B8E493A31E
:1005C900FAE493A3F8E493A3C8C582C8CAC583CA49
:1005D900F0A3C8C582C8CAC583CADFE9DEE780BE01
:010777000081
:1001EB00BB010689828A83E0225002E722BBFE0212
:0901FB00E32289828A83E4932245
:10020400BB010CE58229F582E5833AF583E02250AF
:1002140006E92582F8E622BBFE06E92582F8E222F9
:0D022400E58229F582E5833AF583E4932213
:10023100BB010689828A83F0225002F722BBFE01AC
:02024100F322A6
:10024300F8BB010DE58229F582E5833AF583E8F0F1
:10025300225006E92582C8F622BBFE05E92582C89D
:02026300F22285
:10026500BC000BBE0029EF8DF084FFADF022E4CC7D
:10027500F875F008EF2FFFEE33FEEC33FCEE9DEC46
:10028500984005FCEE9DFE0FD5F0E9E4CEFD22ED8C
:10029500F8F5F0EE8420D21CFEADF075F008EF2FD6
:1002A500FFED33FD4007985006D5F0F222C398FDC7
:0502B5000FD5F0EA2264
:1002BA00A3F8E0C5F025F0F0E582158270021583F7
:0602CA00E0C838F0E82254
:0E02D000C3E49FFFE49EFEE49DFDE49CFC223F
:1002DE00EB9FF5F0EA9E42F0E99D42F0E89C45F076
:0102EE0022ED
:0C02EF00ECF0A3EDF0A3EEF0A3EFF02282
:0602FB008A838982E4738E
:10030100EF4E6012EF60010EEDBB010B89828A8313
:10031100F0A3DFFCDEFA2289F05007F709DFFCA920
:0C032100F022BBFEFCF309DFFCA9F02277
:00000001FF
