:0308AC000118FF31
:0C09E700E5A0541F4480F5A053A01F227F
:100463009000011201FC25E0FE1201E34EFE900014
:10047300021201FC25E025E04EFE9000031201FC70
:1004830033333354F84EFE9000041201FCC454F08D
:100493004EFE9000051201FCC43354E04EFE900062
:1004A300061201FCC4333354C04EFE900007120100
:1004B300FCFDC433333354804EFF65186009EFF4F9
:0704C300F5801209E78F1814
:0104CA00220F
:060A1E007580FF0209E7EC
:1009C600C0F9A4B0999282F880908883C6A1868ED9
:0209D600FFBF61
:0C09F300E5A0541F44C0F5A053A01F2233
:0C09FF00E5A0541F44E0F5A053A01F2207
:100818007580FF1209FFA8077401088002C333D846
:10082800FCF5801209F3ED9009C693F580EB60039F
:0608380053807F0209FF5E
:1003DF00E4F515F516FDFCED4C6003D38001C392D7
:1003EF00C4ED64014C6003D38001C392C2ED64027B
:1003FF004C6003D38001C392B5E4FBFAAF037E00D8
:10040F007408A807088006CEA2E713CE13D8F8FF0A
:10041F00A9B0E9F582EF5582701CED25E025E02BA0
:10042F00FF7E007401A807088005C333CE33CED8F2
:10043F00F94216EE42150BBB00010AEB64044A7039
:10044F00BB0DBD00010CED64044C708B75B0FFAE9D
:03045F0015AF16C0
:010462002277
:060A170000007F21DFFE5C
:010A1D0022B6
:1008CC00C2AFE4FEEEC3940874809480500DD290B5
:0D08DC00120A17C290120A170E80E9D2AF5F
:0108E90022EC
:10076200E4F5D9F5E9F5F9D2DE1208CC309103307F
:10077200DFFAC2DE20DF18AFF9EFADE9FCEC1201BF
:10078200297B967A43798B783C12001E020162C261
:04079200DF7F0022E3
:10092500E4FEEEC3940874809480500FC297EF13D1
:0B09350092A3EFC313FFD2970E80E7E0
:010940002294
:10099F00C29300C29700D29300120925AF05120926
:0409AF0025C29322A8
:1006B500E4FDC29300C29700D29300120925E4FF1E
:1006C500EFC39408748094805011C297EDC313FD55
:1006D50030A303430580D2970F80E5C29300C297EC
:0C06E50000D29700C2A300D2A300AF0512
:0106F10022E6
:060530008B158A168917E5
:10053600E4FD7F8E12099FE4FCECC394037480945F
:10054600805038AB15AA16A9178C82758300120144
:10055600FCFF75F00A8475F00A84AEF0EEC454F020
:10056600FEEF75F00A84E5F04EFBEC25E0FFC37460
:10057600849FFFAD0312099F0C80BE7D807F8E0293
:02058600099FCB
:060634008B128A138914E9
:10063A00C2AFE4FCECC3940374809480502BEC2585
:10064A00E0FFC374859FFF1206B5EFC4540F75F01F
:10065A000AA4FEEF540F2EFFAB12AA13A9148C8220
:0B066A0075830012023B0C80CBD2AF66
:010675002262
:0408EA007F057E0008
:1008EE00EF1FAA0670011E4A600FE4FDEDC3940CC3
:0908FE007480948050EA0D80F32F
:0109070022CD
:0207CA00A9077D
:1007CC00E4FBEBC39408748094805012C294E91338
:1007DC0092941208EAD294E9C313F90B80E47F05D2
:0507EC007E000208EE92
:10088900E4FBEBC39408748094805014C294ECC3C5
:1008990013FCD2943094034304801208EA0B80E2DB
:0208A900AF049A
:0108AB00222A
:1007F100C200D2947F0C7E001208EEC2947F507E1C
:10080100001208EED2947F0A7E001208EEA29492A2
:06081100001208EAA2003B
:0108170022BE
:1006F2001207F17FCC1207CA7F441207CA7FC87E55
:10070200001208EE1207F17FCC1207CA7FBE120751
:10071200CA120889A907120889EFAD01FCEC12017F
:0B07220029E4FBFA7980783D02001EFC
:04094100D2A07F0AB7
:10094500000000000000000000000000000000AEF4
:06095500071FEE70EB220B
:0F09D800D2A1120941C2A17F0A120945C2A02271
:0C0A0B00C2A1120941D2A17F0A020945D4
:02072D00AD0716
:10072F00E4FCECC39408748094805024C2A07F0A28
:10073F00120945ED30E704D2A18002C2A17F0A124F
:10074F000945D2A0ED25E0FD7F0A1209450C80D2A4
:02075F00C2A036
:010761002275
:10083E00E4FCECC39408748094805017120941EDC7
:10084E0025E0FD30A103430501C2A07F0A12094530
:05085E000C80DFAF0576
:010863002272
:0B09080012072D120913AF0312072D78
:10091300120941A2A1E433FDC2A07F0A120945AF27
:0109230005CE
:0109240022B0
:10000300C2A0EF24FF92A17F0A120945120941C23F
:08001300A0D2A17F0A020945F9
:02086400AB07E0
:100866001209D87F911209081209D87F9012072D14
:1008760012091312083EAD077F01120003120A0B7C
:02088600AF05BC
:01088800224D
:10097500AB071209D87F9012072D1209137F411278
:050985000908020A0B45
:100588008B088A09890A8D0B1209D87FA012072DBA
:10059800120913AF0C12072D120913AF0B150BEF2D
:1005A800601FAB08050AE50AAA097002050914F9D3
:1005B8001201E3FF12072D1209137FC812094580A3
:1005C800DA120A0B7FFF1209457FFF1209457FFFE8
:0805D8001209457FFF020945ED
:1005E0008B0D8A0E890F8D101209D87FA012072D4E
:1005F000120913AF1112072D1209131209D87FA186
:1006000012072D120913AF101510EF602412083EC7
:10061000AB0D050FE50FAA0E7002050E14F9EF12CF
:100620000229E5106004E4FF80027F0112000380CC
:04063000D5020A0BDA
:03000000020353A5
:0C035300787FE4F6D8FD75814A02039A19
:1008AF0008340101010100000000083E1010101073
:0C08BF0010101010032C0B162101290052
:1009B300538E7F5389F0438905E4F58AF58CC28D04
:0309C300D28C22B1
:10098A00538EBF53890F758B18758DFCC28FD28E0B
:05099A00D2ABD2AF2238
:10079600AE3CAF3D7C007D9612025DED4C7024129E
:1007A60006F28F4A8E498D488C47E4FFFE7D207CF9
:1007B60041AB4AAA49A948A84712001E1201628EF7
:0407C6002F8F30221F
:10067600AE3CAF3D7C007D1412025DED4C702F1236
:1006860003DF8E238F24E5216523FEE5226524FF03
:10069600E524F4FDE523F45EF527EF5DF528E52373
:0E06A6005EF525E5245FF526852321852422B7
:0106B4002223
:1004CB00AE3CAF3D7C007D1412025DED4C7055AE21
:1004DB002AAF2BFC7D0A12025D8D45AE2AAF2B7C19
:1004EB00007D0A12025D7C007D0A12025D8D44AE16
:1004FB002AAF2B7C007D6412025D7C007D0A120208
:10050B005D8D43AE2AAF2B7C037DE812025D7C0030
:10051B007D0A12025D8D42AE2AAF2B7C277D101215
:05052B00025D8F41227A
:10095B007B007A00792C1205301209B312098A1226
:0A096B0007961206761204CB80F501
:03001B000202C01E
:1002C000C0E0C0F0C083C082C0D075D000C000C004
:0D02D00001C002C003C004C005C006C00785
:1002DD00053DE53D7002053CB4E81BE53CB4031655
:1002ED00AF8CEFAD8AF52AEDF52B758A00758C0074
:1002FD00753C00753D007B007A007934120463056E
:10030D0029E5295407F529243EF8E6FFD394147402
:10031D008094804008EF24D2FD7B018009743E2536
:0B032D0029F8E6FDE4FBAF29120818D8
:10033800D007D006D005D004D003D002D001D00019
:0B034800D0D0D082D083D0F0D0E032C3
:10001E00EC4D6011E8497017ED33EC3304600DE4DC
:10002E00FCFFFEFD22E933E8330470F80201CE1224
:10003E00019958046009E4CC248150062850090225
:10004E0001D82840030201D5C0E0EB4A7044B980C4
:10005E0006D0E0FB0201C4EF4E701CBD8008EBFF22
:10006E00EAFEE9FD80EBE98DF0A4FEE5F002010762
:10007E00E9CDF9EAFEEBFFEF89F0A4FCE5F0CE89BD
:10008E00F0A42EFFE435F0CD89F0A42DFEE435F07A
:10009E008067EF4E7005BD80D780C3EF8BF0A4ACA8
:1000AE00F0EE8BF0A42CFCE435F0F8EF8AF0A42CE3
:1000BE00E5F038FCE433CB8DF0A42CFCE5F03BF8F6
:1000CE00EE8AF0A42CFCE5F038F8E433CF89F0A4E6
:1000DE002CFCE5F038CF3400CE89F0A42FFFE5F0EC
:1000EE003EFEE433C98DF0A42EFEE5F039CD8AF044
:1000FE00A42FFFE5F03EFEE43DFD33D0E0FB5007BC
:10010E000BBB000F0201D8EC2CFCEF33FFEE33FEDD
:06011E00ED33FD0201B00B
:1001240075F020800E75F010800575F0087D007E56
:10013400007F003392D530D5031202B2EC33401065
:10014400EF33FFEE33FEED33FDEC33FCD5F0ED225F
:0E015400E5F0247EA2D513CC92E7CDCEFF229B
:10016200EDD2E7CD33EC3392D524814006E4FFFE95
:10017200FDFC22FCE4CFCECDCC24E0501174FF80F4
:10018200EDC3CC13CCCD13CDCE13CECF13CF047091
:07019200F030D5DE0202B2DD
:10019900E9D2E7C933E833F892D5EDD2E7CD33ECAC
:0701A90033FC5002B2D52225
:1001B000EC30E7100FBF000C0EBE00080DBD0004B0
:1001C0000BEB6014A2D5EB13FCED92E7FD2274FF5C
:1001D000FCFDFEFF22E480F8A2D574FF13FC7D80B5
:0301E000E480EFC9
:10035F0002095BE493A3F8E493A34003F68001F250
:10036F0008DFF48029E493A3F85407240CC8C3339F
:10037F00C4540F4420C8834004F456800146F6DF6E
:10038F00E4800B01020408102040809008ACE47E4A
:10039F00019360BCA3FF543F30E509541FFEE49363
:1003AF00A360010ECF54C025E060A840B8E493A32A
:1003BF00FAE493A3F8E493A3C8C582C8CAC583CA55
:1003CF00F0A3C8C582C8CAC583CADFE9DEE780BE0D
:0108CB00002C
:1001E300BB010689828A83E0225002E722BBFE021A
:0901F300E32289828A83E493224D
:1001FC00BB010CE58229F582E5833AF583E02250B8
:10020C0006E92582F8E622BBFE06E92582F8E22201
:0D021C00E58229F582E5833AF583E493221B
:10022900BB010689828A83F0225002F722BBFE01B4
:02023900F322AE
:10023B00F8BB010DE58229F582E5833AF583E8F0F9
:10024B00225006E92582C8F622BBFE05E92582C8A5
:02025B00F2228D
:10025D00BC000BBE0029EF8DF084FFADF022E4CC85
:10026D00F875F008EF2FFFEE33FEEC33FCEE9DEC4E
:10027D00984005FCEE9DFE0FD5F0E9E4CEFD22ED94
:10028D00F8F5F0EE8420D21CFEADF075F008EF2FDE
:10029D00FFED33FD4007985006D5F0F222C398FDCF
:0502AD000FD5F0EA226C
:0E02B200C3E49FFFE49EFEE49DFDE49CFC225D
:00000001FF
