:040ECB004100AEFF35
:0C146500E5A0541F4480F5A053A01F22F6
:100DFC0090000112054E25E0FE1205354EFE9000C6
:100E0C000212054E25E025E04EFE90000312054E21
:100E1C0033333354F84EFE90000412054EC454F094
:100E2C004EFE90000512054EC43354E04EFE900069
:100E3C000612054EC4333354C04EFE900007120503
:100E4C004EFDC433333354804EFF9000AEE06F60E0
:0A0E5C0009EFF4F580121465EFF0C1
:010E66002269
:0614C0007580FF021465B7
:10144400C0F9A4B0999282F880908883C6A1868E50
:02145400FFBFD8
:0C147100E5A0541F44C0F5A053A01F22AA
:0C147D00E5A0541F44E0F5A053A01F227E
:1012A2007580FF12147DA8077401088002C333D829
:1012B200FCF580121471ED90144493F580EB6003F9
:0612C20053807F02147D41
:100CBC00E49000ACF0A3F09000AAF0A3F09000AA8E
:100CCC00E0FEA3E0FFC39404EE6480948040030232
:100CDC000D64EF4E60028001C392C4EF64014E605C
:100CEC0003D38001C392C29000AAE07004A3E06415
:100CFC00026003D38001C392B5E4FDFCA9057E001C
:100D0C007408A801088006CEA2E713CE13D8F8FF0A
:100D1C00ABB0EF5B70269000AAA3E025E025E0299C
:100D2C00FF7E007401A807088005C333CE33CED8EC
:100D3C00F9FF9000ACE04EF0A3E04FF00DBD0001C8
:100D4C000CED64044C70B59000ABE004F0700690B0
:100D5C0000AAE004F0020CC975B0FF9000ACE0FEF4
:030D6C00A3E0FF02
:010D6F002261
:081495000000750D21D50DFDCD
:01149D00222C
:10133700C2AFE4FFEFC3940874809480500DD2903D
:0D134700121495C2901214950F80E9D2AFD8
:011354002276
:10119A00E4F5D9F5E9F5F9D2DE12133730910330C7
:1011AA00DFFAC2DE20DF18AFF9EFADE9FCEC12017D
:1011BA00317B967A43798B783C12002602016AC207
:0411CA00DF7F0022A1
:10137300E4FEEEC3940874809480500FC297EF1379
:0B13830092A3EFC313FFD2970E80E788
:01138E00223C
:10141D00C29300C29700D29300121373AF0512133B
:04142D0073C29322D1
:1010E500E4FDC29300C29700D29300121373E4FF8C
:1010F500EFC39408748094805011C297EDC313FD1B
:1011050030A3034480FDD2970F80E5C29300C297B8
:0C11150000D29700C2A300D2A300AF05D7
:0111210022AB
:0B0F2D00900070EBF0A3EAF0A3E9F0E5
:100F3800E4FD7F8E12141DE4FCECC39403748094CA
:100F480080503D900070E0FBA3E0FAA3E0F98C82AA
:100F580075830012054EFF75F00A8475F00A84AE99
:100F6800F0EEC454F0FEEF75F00A84E5F04EFBECA9
:100F780025E0FFC374849FFFAD0312141D0C80B9D4
:070F88007D807F8E02141D25
:0B0F8F00900070EBF0A3EAF0A3E9F083
:100F9A00C2AFE4FCECC39403748094805031EC2516
:100FAA00E0FFC374859FFF1210E5EFC4540F75F07C
:100FBA000AA4FEEF540F2EFF900070E0FBA3E0FAA4
:100FCA00A3E0F98C82758300EF12058D0C80C5D2DF
:010FDA00AF67
:010FDB0022F3
:041355007F057E0092
:10135900EF1FAA0670011E4A600FE4FDEDC3940C4D
:091369007480948050EA0D80F3B9
:011372002258
:02125400A907E8
:10125600E4FBEBC39408748094805012C294E913A3
:101266009294121355D294E9C313F90B80E47F05C7
:051276007E0002135987
:10131400E4FBEBC39408748094805014C294ECC32F
:1013240013FCD2943094034480FC1213550B80E2D6
:02133400AF0404
:011336002294
:10127B00C209D2947F0C7E00121359C2947F507E08
:10128B0000121359D2947F0A7E00121359A2949222
:06129B0009121355A2091F
:0112A100222A
:10115F0012127B7FCC1212547F441212547FC87E1E
:10116F000012135912127B7FCC1212547FBE12122F
:10117F0054121314A907121314EFAD01FCEC120152
:0B118F0031E4FBFA7980783D02002675
:0413AA00D2A07F0A44
:1013AE00000000000000000000000000000000AE81
:0613BE00071FEE70EB2298
:0F145600D2A11213AAC2A17F0A1213AEC2A02202
:0C148900C2A11213AAD2A17F0A0213AE66
:0811220012112A12121AAF0388
:02112A00AD070F
:10112C00E4FCECC39408748094805024C2A07F0A21
:10113C001213AEED30E704D2A18002C2A17F0A12D5
:10114C0013AED2A0ED25E0FD7F0A1213AE0C80D2B7
:02115C00C2A02F
:01115E00226E
:1012C800E4FCECC394087480948050171213AAEDC0
:1012D80025E0FD30A1034401FDC2A07F0A1213AE30
:0512E8000C80DFAF05E2
:0112ED0022DE
:1011FE00EBF0A3EAF0A3E9F0A3EDF01214567FA0F2
:0C120E0012112A12121AA3E0FF12112A7A
:10121A001213AAA2A1E433FDC2A07F0A1213AEAF31
:01122A0005BE
:01122B0022A0
:10000300C2A0EF24FF92A17F0A1213AE1213AAC259
:08001300A0D2A17F0A0213AE86
:02122C00AB070E
:10122E001214567F9112112212121A1214567F9016
:10123E0012112A12121A1212C8AD077F01120003E0
:05124E00121489AF0538
:011253002278
:1013C400AB071214567F9012112A12121A7F41127F
:0813D400112212121A02148901
:101022009000A01211FE9000A3E0FF14F0EF601DEB
:101032009000A0E0FBA3E475F001120604A9F0FA07
:101042001205351212167FC81213AE80D9121489F6
:101052007FFF1213AE7FFF1213AE7FFF1213AE7F1C
:04106200FF0213AEC8
:100FDC009000A51211FE1214567FA112112A1212A2
:100FEC001A9000A8E0FF14F0EF60281212C89000CD
:100FFC00A5E0FBA3E475F001120604A9F0FAEF12C8
:10100C00057B9000A8E06004E4FF80027F011200E1
:06101C000380CE021489DE
:1013DC00759850438E01438E0475D7C775D6FE435E
:0713EC008E10D2ACD2AF223B
:0814B0008F993099FDC29922C9
:03000000020D707E
:0C0D7000787FE4F6D8FD758121020DB7F4
:0314C60025750089
:100ECF0088000101010100000000881200000000ED
:100EDF00000000004300290B16214100687B60379A
:100EEF000031FF14A70000000100000000FF149E56
:100EFF000000012C00000000FF138F000000A00075
:100F0F00000000FF12EE0000000A00000000FF14B6
:0D0F1F0008000000C8000000004100220092
:10143100538E7F5389F0438905E4F58AF58CC28D7B
:03144100D28C2228
:1013F300538EBF53890F758B18758DFCC28FD28E98
:05140300D2ABD2AF22C4
:10106600900069E0FEA3E0FF7C007D961205AFEDDF
:101076004C702C12115F90006C120639E4FFFE7D55
:10108600207C4190006CE0F8A3E0F9A3E0FAA3E02D
:10109600FB12002612016A90002CEEF0A3EFF0225C
:100E6700900069E0FEA3E0FF7C007D141205AFED62
:100E77004C7050120CBC90001CEEF0A3EFF09000E9
:100E87001CE0FEA3E0FF90001AE0FCA3E0FDEC6E7F
:100E9700FAED6FFBA3A3E0F4FFEEF45AFEEB5FFF5E
:100EA700900020EEF0A3EFF090001CE0FCA3E0FD23
:100EB700EC5AFFED5BA3CFF0A3EFF090001AECF034
:030EC700A3EDF0A8
:010ECA002205
:101408007808E2FF75F00A847819E5F0F2EF75F0D4
:051418000A8418F22215
:10138F007F4112122CEF75F00AA4780EA6F008F622
:0B139F007811E675F033A4FF0213C4C0
:09149E007B017A00792E020F8F08
:0814B80012119A7813A6072215
:0914A7007BFE7A007900020DFCC5
:1012EE0090006BE0FF601E7812E6C3940A7480943F
:1012FE00804012E4F6FEFD7BFE7A0079081206911C
:06130E00E490006BF022E8
:05001E007810760522B8
:100C0100E4900070F0900070E0FBC3781096400310
:030C1100020CBB17
:100C1400900023E0FCA3E0FDA3E0FEA3E0FF90002E
:100C240071120639EB75F00BA42434F582E4340018
:100C3400F583E0FCA3E0FDA3E0FEA3E0FFEB75F089
:100C44000BA42438F582E43400F583E0F8A3E0F93A
:100C5400A3E0FAA3E02FFFEA3EFEE93DFDE83CFCF9
:100C6400900071E0F8A3E0F9A3E0FAA3E0FBD3124B
:100C74000628403A900071E0FCA3E0FDA3E0FEA347
:100C8400E0FF900070E0FB75F00BA42438F582E4DB
:100C94003400F583120639EB75F00BA42431F58288
:0E0CA400E43400F583A3E0FAA3E0F912068B16
:090CB200900070E004F0020C0651
:010CBB002216
:1011CE0012001E7B017A007929120F2D1214311292
:1011DE0013F31213DC7BFF7A1479C6900068E0FFDC
:1011EE00900073E4F0A3EFF0120728120C0180FBBD
:03001B00020B4095
:100B4000C0E0C0F0C083C082C0D075D000C000C07B
:0D0B500001C002C003C004C005C006C007FC
:100B5D0090006AE004F07006900069E004F09000E7
:100B6D0023E0FCA3E0FDA3E0FEA3E02401FFE43EAF
:100B7D00FEE43DFDE43CFC9000231206397812069C
:100B8D00900069E0B40321A3E0B4E81CAF8CEFFF43
:100B9D00AD8AED900027CFF0A3EFF0758A00758C2C
:100BAD0000900069E4F0A3F0900022E004F05407F7
:100BBD00F0E02412F8E2FED3941474809480400A7D
:100BCD00E0FFEE24D2FD7B01800C900022E0FF249B
:090BDD0012F8E2FDE4FB1212A281
:100BE600D007D006D005D004D003D002D001D00063
:0B0BF600D0D0D082D083D0F0D0E0320D
:030023000210A622
:1010A600C0E0C083C082C0D075D000C000C0073089
:1010B60098207812760090006BE0FF04F074082FF9
:1010C600F8E599F2C298E0D3940A748094804002BD
:0F10D600E4F0D007D000D0D0D082D083D0E03269
:10002600EC4D6011E8497017ED33EC3304600DE4D4
:10003600FCFFFEFD22E933E8330470F80201D61214
:1000460001A158046009E4CC248150062850090215
:1000560001E02840030201DDC0E0EB4A7044B980AC
:1000660006D0E0FB0201CCEF4E701CBD8008EBFF12
:10007600EAFEE9FD80EBE98DF0A4FEE5F002010F52
:10008600E9CDF9EAFEEBFFEF89F0A4FCE5F0CE89B5
:10009600F0A42EFFE435F0CD89F0A42DFEE435F072
:1000A6008067EF4E7005BD80D780C3EF8BF0A4ACA0
:1000B600F0EE8BF0A42CFCE435F0F8EF8AF0A42CDB
:1000C600E5F038FCE433CB8DF0A42CFCE5F03BF8EE
:1000D600EE8AF0A42CFCE5F038F8E433CF89F0A4DE
:1000E6002CFCE5F038CF3400CE89F0A42FFFE5F0E4
:1000F6003EFEE433C98DF0A42EFEE5F039CD8AF03C
:10010600A42FFFE5F03EFEE43DFD33D0E0FB5007B3
:100116000BBB000F0201E0EC2CFCEF33FFEE33FECD
:06012600ED33FD0201B8FB
:10012C0075F020800E75F010800575F0087D007E4E
:10013C00007F003392D530D50312061AEC334010F1
:10014C00EF33FFEE33FEED33FDEC33FCD5F0ED2257
:0E015C00E5F0247EA2D513CC92E7CDCEFF2293
:10016A00EDD2E7CD33EC3392D524814006E4FFFE8D
:10017A00FDFC22FCE4CFCECDCC24E0501174FF80EC
:10018A00EDC3CC13CCCD13CDCE13CECF13CF047089
:07019A00F030D5DE02061A69
:1006BD00E5082473F582E43400F583E00508229003
:1006CD000070300703900073E475F00112064502C7
:1006DD0005352000E97F2ED2008018EF540F2490AD
:1006ED00D43440D4FF30040BEF24BFB41A005003B0
:1006FD002461FFE50960021509050CE50C70020582
:10070D000B30070E900070E475F001120645EF02F4
:10071D00057B0214B07403D2078003E4C207F50809
:10072D0090007012065CE4F509F50BF50CE5096017
:10073D00077F2012070080F5750AFFC201C200C2B3
:10074D0002C203C205C206C2081206CCFF700D30EC
:10075D0007057F00120711AF0CAE0B22B4255FC247
:10076D00D5C2041206CCFF24D0B40A00501A75F07D
:10077D000A780930D50508B6FF0106C6A426F6206D
:10078D00D5047002D20380D924CFB41A00EF5004DF
:10079D00C2E5D204020A03D20180C6D20080C0D2C3
:1007AD000280BCD2D580BAD20580B47F201207005A
:1007BD002002077401B5090040F11206BDFF1207B2
:1007CD000002073AD208D20680951206BDFB12062A
:1007DD00BDFA1206BDF94A4B700679017A0B7BFF03
:1007ED0020022EE509602A7E008E82758300120597
:1007FD004E60060EEE650A70F0C2D5EBC0E0EAC0A1
:10080D00E0E9C0E0EE120A64D0E0F9D0E0FAD0E001
:10081D00FB120535FF60AAEBC0E0EAC0E0E9C0E0DD
:10082D00120700D0E02401F9D0E03400FAD0E0FB4B
:10083D00E50A0460DCD50AD98087D20280A2120AAB
:10084D004660F7E50A7001041201EBA90A600DE597
:10085D000A600914F50A120AEEEF60F3EA30E702B6
:10086D00F404C3995079EAF4250A0430E701E4044D
:10087D00F50A800D120A4660C1EA050A250A120121
:10088D00EBEA90009FF030E701E4250A04D50A0455
:10089D0020050114120A64E4C0E0120AEE90009FD4
:1008AD00E0601320E70714F01206E8802204F0D070
:1008BD00E014C0E07F001206E8E50A60071206DFCB
:1008CD00150A800B3005031206DFD0E002073AD07F
:1008DD00E00480C4120A46609EE50A041201EB9002
:1008ED00009FEAF0E50A2005026001042404120AC3
:0108FD006496
:1008FE0074FF04C0E0120AEE1206E8E50A200502B3
:10090E0060031206DFD0E0B50AE87F451206F290CA
:10091E00009FE07F2B30E7047F2DF404C0E0120728
:10092E0000D0E075F00A84C0F01206E9D0E012069D
:10093E00E902073A791080027908C206C2088008D7
:10094E00D2D5790A8004790AC2D5E50A047002F577
:10095E000AE4FAFDFEFF1206BDFC7B08200113120D
:10096E0006BDFD7B1030000A1206BDFE1206BDFF4D
:10097E007B20EC3382D592D55013C3E43000069F12
:10098E00FFE49EFEE42001039DFDE49CFCE4CBF815
:10099E00C201EC700CCFCECDCCE824F8F870F38009
:1009AE0017C3EF33FFEE33FEED33FDEC33FCEB33C9
:1009BE00FB994002FB0FD8E9EB300105F8D0E0C4FB
:1009CE0048B201C0E00AEC4D4E4F78207B0070C259
:1009DE00EAB50A0040BCC0E0120A66D0F0D0E020B2
:1009EE000104C4C0E0C4B201C0F01206E9D0F0D5D3
:1009FE00F0EB02073A12066507D75309425807A8CB
:100A0E004C07A44209464F094E44094E4907BD43BF
:100A1E0009545508814608E145084B470B215007FC
:100A2E00AC2D07B02E07D32B07B42307D1200B0A0A
:100A3E002A076C48000007CBE50AB4FF03750A06C7
:100A4E001206BDFC1206BDFD1206BDFE1206BDFF4E
:100A5E00900098020228790AA2D5200314300509C5
:100A6E00B910020404B9080104A2D52006025001EF
:100A7E00042002689202B509005034C0E07F203095
:100A8E0003197F30A20272067205500F120ABDC200
:100A9E0002C206C205C2087F30800F300503E9C0CE
:100AAE00E0120700300503D0E0F9D0E0B509CC30F4
:100ABE0005177F30B9100C1207007F583004077FDE
:100ACE00788003B908031207003002057F2D020754
:100ADE00007F202008F87F2B2006F322920280CF81
:100AEE007F00B40700500B2498F582E43400F583A0
:100AFE00E0FF22286E756C6C2900D2011206BD3003
:100B0E0001F8C201780930D50108F602076C2D50A4
:100B1E004349581206BD2403B405004001E4900B6E
:100B2E001C931206F1743A1206F1D20375090402EF
:020B3E0009426A
:1001A100E9D2E7C933E833F892D5EDD2E7CD33ECA4
:0701B10033FC5002B2D5221D
:1001B800EC30E7100FBF000C0EBE00080DBD0004A8
:1001C8000BEB6014A2D5EB13FCED92E7FD2274FF54
:1001D800FCFDFEFF22E480F8A2D574FF13FC7D80AD
:0301E800E480EFC1
:1001EB00F920E73624F950037907E4F42402FBE500
:1001FB0082158270021583DBF6E024FB501BE9604D
:10020B0014E4F0E582158270021583E004F0B40A61
:0D021B0008E4F0D9EE7401F00A22C2D522E9
:10022800ED33EC3392D5FA602AB4FF33EDC2E77BA5
:10023800FF60067A02794DE4227A02795620D504C5
:100248007A027951224E614E002B494E46002D49C3
:100258004E4600E47A08F0A3DAFC7B00740722C05B
:1002680083C082ECC0E0EDC0E0EEC0E0EFC0E0EAA1
:1002780075F010A4CAABF075F04DA42BFBE435F073
:10028800FCEA2410FAEB34C5FBEC34D9FCEDC2E7E8
:10029800FF75F056A4F42411C5F0F434C58FF0A40A
:1002A8002AE5F03BE43CF020E7141204F5D0E0FF27
:1002B800D0E0FED0E0FDD0E0FC1204288014F40465
:1002C8001204F5D0E0FFD0E0FED0E0FDD0E0FC1253
:1002D8000026D082D083E0FAEDD2E7CD33EC332488
:1002E80082FBE4C3CF33CFCE33CECD33CD33DBF374
:1002F8007B0775F00A846004F0A31B0AE5F0F0A3FD
:100308008FF0740AA4FFACF08EF0740AA42CFEAC33
:10031800F050010C8DF0740AA42CFDE435F0F0A324
:05032800DBDE7407227A
:10032D000201D6E86480F8E933E83360110460F027
:10033D00ED33EC337009E8FCE9FDEAFEEBFF220436
:10034D0060DED3EB9FEA9EE99DE8C2E78CF0C2F731
:10035D0095F0400CE8CCF8E9CDF9EACEFAEBCFFBFD
:10036D001201A185D0F05804700320D5B3E80470B4
:10037D00075002B2D50201E092D5EC0460F7E4CC4F
:10038D00C0E0C398F8603B94186008400DD0E0FBC6
:10039D000201B8E4FBFAC9FC8028E830E406E4C9A0
:1003AD00FBE4CAFCE830E305E4C9CACBFCE854071A
:1003BD006010F8C3E913F9EA13FAEB13FBEC13FC25
:1003CD00D8F130F52FC3E49CFCEF9BFFEE9AFEEDC8
:1003DD0099FDD0E0FBEF4E4D4C701222DB03020174
:1003ED00DDEC2CFCEF33FFEE33FEED33FDED30E7AE
:1003FD00EB0201B8EF2BFFEE3AFEED39FDD0E0FB3D
:10040D0050130BBB00030201E0ED13FDEE13FEEFE5
:08041D0013FFEC13FC0201B80F
:100425000201E0EC5D046005E8590470030201D6A1
:100435001201A1580460F6EC4860F2EC7004FDFE70
:10044500FF22C860DB2481C85009C39860025006AA
:100455000201DD9850CAF582E9294B4A7005AB8245
:100465000201CC75F0007C1A7880C3EF9BEE9AED03
:1004750099400DC3EF9BFFEE9AFEED99FDE842F022
:10048500DC23ACF0D0E0FFD0E0FED0E0FDAB822075
:10049500E7101BEB60BAEC2CFCEF33FFEE33FEEDFF
:1004A50033FD0201B8E803F830E705C0F075F00048
:1004B500EF2FFFEE33FEED33FD40B830E7C280AAE3
:1004C5003F8000004120000042C80000447A00003F
:1004D500461C400047C35000497424004B189680C1
:1004E5004CBEBC205A0E1BCA6753C21C749DC5AEB8
:1004F500FB60065407601C2323120523EB54386068
:100505000912050F12051E120026ECF8EDF9EEFA98
:10051500EFCB22EB12051E80F1543803241C900406
:10052500C5FE93FC0EEE93FD0EEE930ECE93FF22C9
:100D7C000211CEE493A3F8E493A34003F68001F2AE
:100D8C0008DFF48029E493A3F85407240CC8C33378
:100D9C00C4540F4420C8834004F456800146F6DF47
:100DAC00E4800B0102040810204080900ECBE47EFE
:100DBC00019360BCA3FF543F30E509541FFEE4933C
:100DCC00A360010ECF54C025E060A840B8E493A303
:100DDC00FAE493A3F8E493A3C8C582C8CAC583CA2E
:100DEC00F0A3C8C582C8CAC583CADFE9DEE780BEE6
:010F2C0000C4
:10053500BB010689828A83E0225002E722BBFE02C4
:09054500E32289828A83E49322F7
:10054E00BB010CE58229F582E5833AF583E0225062
:10055E0006E92582F8E622BBFE06E92582F8E222AC
:0D056E00E58229F582E5833AF583E49322C6
:10057B00BB010689828A83F0225002F722BBFE015F
:02058B00F32259
:10058D00F8BB010DE58229F582E5833AF583E8F0A4
:10059D00225006E92582C8F622BBFE05E92582C850
:0205AD00F22238
:1005AF00BC000BBE0029EF8DF084FFADF022E4CC30
:1005BF00F875F008EF2FFFEE33FEEC33FCEE9DECF9
:1005CF00984005FCEE9DFE0FD5F0E9E4CEFD22ED3F
:1005DF00F8F5F0EE8420D21CFEADF075F008EF2F89
:1005EF00FFED33FD4007985006D5F0F222C398FD7A
:0505FF000FD5F0EA2217
:10060400A3F8E0C5F025F0F0E582158270021583A9
:06061400E0C838F0E82206
:0E061A00C3E49FFFE49EFEE49DFDE49CFC22F1
:10062800EB9FF5F0EA9E42F0E99D42F0E89C45F028
:01063800229F
:0C063900ECF0A3EDF0A3EEF0A3EFF02234
:10064500F8E0FBA3A3E0F925F0F0E582158270023E
:070655001583E0FA38F022E2
:09065C00EBF0A3EAF0A3E9F0229F
:10066500D083D082F8E4937012740193700DA3A324
:1006750093F8740193F5828883E473740293686038
:06068500EFA3A3A380DF38
:06068B008A838982E473FA
:10069100EF4E6012EF60010EEDBB010B89828A8380
:1006A100F0A3DFFCDEFA2289F05007F709DFFCA98D
:0C06B100F022BBFEFCF309DFFCA9F022E4
:00000001FF
